{
  "contractName": "ForeignBridgeErc677ToErc20",
  "abi": [
    {
      "constant": true,
      "inputs": [],
      "name": "erc677token",
      "outputs": [
        {
          "name": "",
          "type": "address"
        }
      ],
      "payable": false,
      "stateMutability": "view",
      "type": "function"
    },
    {
      "constant": true,
      "inputs": [
        {
          "name": "_txHash",
          "type": "bytes32"
        }
      ],
      "name": "relayedMessages",
      "outputs": [
        {
          "name": "",
          "type": "bool"
        }
      ],
      "payable": false,
      "stateMutability": "view",
      "type": "function"
    },
    {
      "constant": false,
      "inputs": [
        {
          "name": "vs",
          "type": "uint8[]"
        },
        {
          "name": "rs",
          "type": "bytes32[]"
        },
        {
          "name": "ss",
          "type": "bytes32[]"
        },
        {
          "name": "message",
          "type": "bytes"
        }
      ],
      "name": "executeSignatures",
      "outputs": [],
      "payable": false,
      "stateMutability": "nonpayable",
      "type": "function"
    },
    {
      "constant": false,
      "inputs": [
        {
          "name": "_recipient",
          "type": "address"
        }
      ],
      "name": "setFallbackRecipient",
      "outputs": [],
      "payable": false,
      "stateMutability": "nonpayable",
      "type": "function"
    },
    {
      "constant": true,
      "inputs": [
        {
          "name": "_day",
          "type": "uint256"
        }
      ],
      "name": "totalSpentPerDay",
      "outputs": [
        {
          "name": "",
          "type": "uint256"
        }
      ],
      "payable": false,
      "stateMutability": "view",
      "type": "function"
    },
    {
      "constant": true,
      "inputs": [],
      "name": "isInitialized",
      "outputs": [
        {
          "name": "",
          "type": "bool"
        }
      ],
      "payable": false,
      "stateMutability": "view",
      "type": "function"
    },
    {
      "constant": false,
      "inputs": [
        {
          "name": "_dailyLimit",
          "type": "uint256"
        }
      ],
      "name": "setExecutionDailyLimit",
      "outputs": [],
      "payable": false,
      "stateMutability": "nonpayable",
      "type": "function"
    },
    {
      "constant": true,
      "inputs": [],
      "name": "getCurrentDay",
      "outputs": [
        {
          "name": "",
          "type": "uint256"
        }
      ],
      "payable": false,
      "stateMutability": "view",
      "type": "function"
    },
    {
      "constant": true,
      "inputs": [],
      "name": "requiredBlockConfirmations",
      "outputs": [
        {
          "name": "",
          "type": "uint256"
        }
      ],
      "payable": false,
      "stateMutability": "view",
      "type": "function"
    },
    {
      "constant": true,
      "inputs": [],
      "name": "executionDailyLimit",
      "outputs": [
        {
          "name": "",
          "type": "uint256"
        }
      ],
      "payable": false,
      "stateMutability": "view",
      "type": "function"
    },
    {
      "constant": true,
      "inputs": [],
      "name": "fallbackRecipient",
      "outputs": [
        {
          "name": "",
          "type": "address"
        }
      ],
      "payable": false,
      "stateMutability": "view",
      "type": "function"
    },
    {
      "constant": true,
      "inputs": [
        {
          "name": "_day",
          "type": "uint256"
        }
      ],
      "name": "totalExecutedPerDay",
      "outputs": [
        {
          "name": "",
          "type": "uint256"
        }
      ],
      "payable": false,
      "stateMutability": "view",
      "type": "function"
    },
    {
      "constant": false,
      "inputs": [
        {
          "name": "_validatorContract",
          "type": "address"
        },
        {
          "name": "_erc20token",
          "type": "address"
        },
        {
          "name": "_requiredBlockConfirmations",
          "type": "uint256"
        },
        {
          "name": "_gasPrice",
          "type": "uint256"
        },
        {
          "name": "_maxPerTx",
          "type": "uint256"
        },
        {
          "name": "_homeDailyLimit",
          "type": "uint256"
        },
        {
          "name": "_homeMaxPerTx",
          "type": "uint256"
        },
        {
          "name": "_owner",
          "type": "address"
        },
        {
          "name": "_feePercent",
          "type": "uint256"
        }
      ],
      "name": "initialize",
      "outputs": [
        {
          "name": "",
          "type": "bool"
        }
      ],
      "payable": false,
      "stateMutability": "nonpayable",
      "type": "function"
    },
    {
      "constant": true,
      "inputs": [],
      "name": "dailyLimit",
      "outputs": [
        {
          "name": "",
          "type": "uint256"
        }
      ],
      "payable": false,
      "stateMutability": "view",
      "type": "function"
    },
    {
      "constant": false,
      "inputs": [
        {
          "name": "_token",
          "type": "address"
        },
        {
          "name": "_to",
          "type": "address"
        }
      ],
      "name": "claimTokens",
      "outputs": [],
      "payable": false,
      "stateMutability": "nonpayable",
      "type": "function"
    },
    {
      "constant": false,
      "inputs": [
        {
          "name": "_feePercent",
          "type": "uint256"
        }
      ],
      "name": "setFeePercent",
      "outputs": [],
      "payable": false,
      "stateMutability": "nonpayable",
      "type": "function"
    },
    {
      "constant": true,
      "inputs": [],
      "name": "feePercent",
      "outputs": [
        {
          "name": "",
          "type": "uint256"
        }
      ],
      "payable": false,
      "stateMutability": "view",
      "type": "function"
    },
    {
      "constant": true,
      "inputs": [
        {
          "name": "_amount",
          "type": "uint256"
        }
      ],
      "name": "withinExecutionLimit",
      "outputs": [
        {
          "name": "",
          "type": "bool"
        }
      ],
      "payable": false,
      "stateMutability": "view",
      "type": "function"
    },
    {
      "constant": true,
      "inputs": [],
      "name": "executionMaxPerTx",
      "outputs": [
        {
          "name": "",
          "type": "uint256"
        }
      ],
      "payable": false,
      "stateMutability": "view",
      "type": "function"
    },
    {
      "constant": true,
      "inputs": [],
      "name": "requiredSignatures",
      "outputs": [
        {
          "name": "",
          "type": "uint256"
        }
      ],
      "payable": false,
      "stateMutability": "view",
      "type": "function"
    },
    {
      "constant": true,
      "inputs": [],
      "name": "owner",
      "outputs": [
        {
          "name": "",
          "type": "address"
        }
      ],
      "payable": false,
      "stateMutability": "view",
      "type": "function"
    },
    {
      "constant": false,
      "inputs": [
        {
          "name": "_periodLength",
          "type": "uint256"
        },
        {
          "name": "_maxPeriodFunds",
          "type": "uint256"
        },
        {
          "name": "_threshold",
          "type": "uint256"
        },
        {
          "name": "_amount",
          "type": "uint256"
        }
      ],
      "name": "setFundingRules",
      "outputs": [],
      "payable": false,
      "stateMutability": "nonpayable",
      "type": "function"
    },
    {
      "constant": true,
      "inputs": [],
      "name": "validatorContract",
      "outputs": [
        {
          "name": "",
          "type": "address"
        }
      ],
      "payable": false,
      "stateMutability": "view",
      "type": "function"
    },
    {
      "constant": false,
      "inputs": [
        {
          "name": "_validatorContract",
          "type": "address"
        },
        {
          "name": "_erc20token",
          "type": "address"
        },
        {
          "name": "_requiredBlockConfirmations",
          "type": "uint256"
        },
        {
          "name": "_gasPrice",
          "type": "uint256"
        },
        {
          "name": "_maxPerTx",
          "type": "uint256"
        },
        {
          "name": "_homeDailyLimit",
          "type": "uint256"
        },
        {
          "name": "_homeMaxPerTx",
          "type": "uint256"
        },
        {
          "name": "_owner",
          "type": "address"
        },
        {
          "name": "_feePercent",
          "type": "uint256"
        },
        {
          "name": "_fallbackRecipient",
          "type": "address"
        }
      ],
      "name": "initialize",
      "outputs": [
        {
          "name": "",
          "type": "bool"
        }
      ],
      "payable": false,
      "stateMutability": "nonpayable",
      "type": "function"
    },
    {
      "constant": true,
      "inputs": [],
      "name": "deployedAtBlock",
      "outputs": [
        {
          "name": "",
          "type": "uint256"
        }
      ],
      "payable": false,
      "stateMutability": "view",
      "type": "function"
    },
    {
      "constant": true,
      "inputs": [],
      "name": "getBridgeInterfacesVersion",
      "outputs": [
        {
          "name": "major",
          "type": "uint64"
        },
        {
          "name": "minor",
          "type": "uint64"
        },
        {
          "name": "patch",
          "type": "uint64"
        }
      ],
      "payable": false,
      "stateMutability": "pure",
      "type": "function"
    },
    {
      "constant": false,
      "inputs": [
        {
          "name": "_minPerTx",
          "type": "uint256"
        }
      ],
      "name": "setMinPerTx",
      "outputs": [],
      "payable": false,
      "stateMutability": "nonpayable",
      "type": "function"
    },
    {
      "constant": false,
      "inputs": [
        {
          "name": "_blockConfirmations",
          "type": "uint256"
        }
      ],
      "name": "setRequiredBlockConfirmations",
      "outputs": [],
      "payable": false,
      "stateMutability": "nonpayable",
      "type": "function"
    },
    {
      "constant": false,
      "inputs": [
        {
          "name": "_dailyLimit",
          "type": "uint256"
        }
      ],
      "name": "setDailyLimit",
      "outputs": [],
      "payable": false,
      "stateMutability": "nonpayable",
      "type": "function"
    },
    {
      "constant": false,
      "inputs": [
        {
          "name": "_gasPrice",
          "type": "uint256"
        }
      ],
      "name": "setGasPrice",
      "outputs": [],
      "payable": false,
      "stateMutability": "nonpayable",
      "type": "function"
    },
    {
      "constant": true,
      "inputs": [
        {
          "name": "_value",
          "type": "uint256"
        }
      ],
      "name": "subtractFee",
      "outputs": [
        {
          "name": "",
          "type": "uint256"
        }
      ],
      "payable": false,
      "stateMutability": "view",
      "type": "function"
    },
    {
      "constant": false,
      "inputs": [
        {
          "name": "_maxPerTx",
          "type": "uint256"
        }
      ],
      "name": "setMaxPerTx",
      "outputs": [],
      "payable": false,
      "stateMutability": "nonpayable",
      "type": "function"
    },
    {
      "constant": true,
      "inputs": [],
      "name": "upgradeabilityAdmin",
      "outputs": [
        {
          "name": "",
          "type": "address"
        }
      ],
      "payable": false,
      "stateMutability": "view",
      "type": "function"
    },
    {
      "constant": true,
      "inputs": [],
      "name": "minPerTx",
      "outputs": [
        {
          "name": "",
          "type": "uint256"
        }
      ],
      "payable": false,
      "stateMutability": "view",
      "type": "function"
    },
    {
      "constant": true,
      "inputs": [
        {
          "name": "_amount",
          "type": "uint256"
        }
      ],
      "name": "withinLimit",
      "outputs": [
        {
          "name": "",
          "type": "bool"
        }
      ],
      "payable": false,
      "stateMutability": "view",
      "type": "function"
    },
    {
      "constant": false,
      "inputs": [
        {
          "name": "_maxPerTx",
          "type": "uint256"
        }
      ],
      "name": "setExecutionMaxPerTx",
      "outputs": [],
      "payable": false,
      "stateMutability": "nonpayable",
      "type": "function"
    },
    {
      "constant": false,
      "inputs": [
        {
          "name": "newOwner",
          "type": "address"
        }
      ],
      "name": "transferOwnership",
      "outputs": [],
      "payable": false,
      "stateMutability": "nonpayable",
      "type": "function"
    },
    {
      "constant": true,
      "inputs": [],
      "name": "maxPerTx",
      "outputs": [
        {
          "name": "",
          "type": "uint256"
        }
      ],
      "payable": false,
      "stateMutability": "view",
      "type": "function"
    },
    {
      "constant": true,
      "inputs": [],
      "name": "gasPrice",
      "outputs": [
        {
          "name": "",
          "type": "uint256"
        }
      ],
      "payable": false,
      "stateMutability": "view",
      "type": "function"
    },
    {
      "anonymous": false,
      "inputs": [
        {
          "indexed": true,
          "name": "from",
          "type": "address"
        },
        {
          "indexed": true,
          "name": "to",
          "type": "address"
        }
      ],
      "name": "RecipientRedirected",
      "type": "event"
    },
    {
      "anonymous": false,
      "inputs": [
        {
          "indexed": false,
          "name": "recipient",
          "type": "address"
        },
        {
          "indexed": false,
          "name": "value",
          "type": "uint256"
        },
        {
          "indexed": false,
          "name": "transactionHash",
          "type": "bytes32"
        }
      ],
      "name": "RelayedMessage",
      "type": "event"
    },
    {
      "anonymous": false,
      "inputs": [
        {
          "indexed": false,
          "name": "newFeePercent",
          "type": "uint256"
        }
      ],
      "name": "FeePercentChanged",
      "type": "event"
    },
    {
      "anonymous": false,
      "inputs": [
        {
          "indexed": false,
          "name": "gasPrice",
          "type": "uint256"
        }
      ],
      "name": "GasPriceChanged",
      "type": "event"
    },
    {
      "anonymous": false,
      "inputs": [
        {
          "indexed": false,
          "name": "requiredBlockConfirmations",
          "type": "uint256"
        }
      ],
      "name": "RequiredBlockConfirmationChanged",
      "type": "event"
    },
    {
      "anonymous": false,
      "inputs": [
        {
          "indexed": false,
          "name": "newLimit",
          "type": "uint256"
        }
      ],
      "name": "DailyLimitChanged",
      "type": "event"
    },
    {
      "anonymous": false,
      "inputs": [
        {
          "indexed": false,
          "name": "newLimit",
          "type": "uint256"
        }
      ],
      "name": "ExecutionDailyLimitChanged",
      "type": "event"
    },
    {
      "anonymous": false,
      "inputs": [
        {
          "indexed": false,
          "name": "previousOwner",
          "type": "address"
        },
        {
          "indexed": false,
          "name": "newOwner",
          "type": "address"
        }
      ],
      "name": "OwnershipTransferred",
      "type": "event"
    },
    {
      "constant": true,
      "inputs": [],
      "name": "getBridgeMode",
      "outputs": [
        {
          "name": "_data",
          "type": "bytes4"
        }
      ],
      "payable": false,
      "stateMutability": "pure",
      "type": "function"
    },
    {
      "constant": true,
      "inputs": [],
      "name": "erc20token",
      "outputs": [
        {
          "name": "",
          "type": "address"
        }
      ],
      "payable": false,
      "stateMutability": "view",
      "type": "function"
    },
    {
      "constant": false,
      "inputs": [
        {
          "name": "_from",
          "type": "address"
        },
        {
          "name": "_value",
          "type": "uint256"
        },
        {
          "name": "",
          "type": "bytes"
        }
      ],
      "name": "onTokenTransfer",
      "outputs": [
        {
          "name": "",
          "type": "bool"
        }
      ],
      "payable": false,
      "stateMutability": "nonpayable",
      "type": "function"
    }
  ],
  "bytecode": "0x608060405234801561001057600080fd5b50612fac806100206000396000f3006080604052600436106101ea5763ffffffff60e060020a60003504166318d8f9c981146101ef5780631dcea4271461022057806321d800ec14610235578063232a2c1d146102615780632b92490e146102a75780632bd0bb05146102c8578063392e53cd146102f25780633dd95d1b146103075780633e6968b61461031f5780633f0a9f6514610334578063437764df1461034957806343b37dd314610393578063452f3ce0146103a85780634fb3fef7146103bd57806351c764e0146103d557806367eeba0c1461041a57806369ffa08a1461042f5780637ce3489b146103075780637fd6f15c14610456578063879ce6761461046b5780638aa1949a146104835780638d068043146104985780638da5cb5b146104ad57806398a86954146104c257806399439089146104e3578063997b8c2d146104f85780639a454b99146105455780639cb7595a1461055a578063a2a6ca271461059b578063a4c0ed36146105b3578063acf5c689146105e4578063b20d30a9146105fc578063bf1fe42014610614578063c05676561461062c578063c6f6f21614610644578063df0ad3de1461065c578063df25f3f014610671578063ea9f496814610686578063f20151e11461069e578063f2fde38b146106b6578063f968adbe146106d7578063fe173b97146106ec575b600080fd5b3480156101fb57600080fd5b50610204610701565b60408051600160a060020a039092168252519081900360200190f35b34801561022c57600080fd5b506102046107bf565b34801561024157600080fd5b5061024d6004356107ce565b604080519115158252519081900360200190f35b34801561026d57600080fd5b506102a56024600480358281019290820135918135808301929082013591604435808301929082013591606435918201910135610897565b005b3480156102b357600080fd5b506102a5600160a060020a0360043516610a51565b3480156102d457600080fd5b506102e0600435610a79565b60408051918252519081900360200190f35b3480156102fe57600080fd5b5061024d610b36565b34801561031357600080fd5b506102a5600435610bee565b34801561032b57600080fd5b506102e0610c71565b34801561034057600080fd5b506102e0610c7a565b34801561035557600080fd5b5061035e610d2e565b604080517fffffffff000000000000000000000000000000000000000000000000000000009092168252519081900360200190f35b34801561039f57600080fd5b506102e0610dd1565b3480156103b457600080fd5b50610204610e44565b3480156103c957600080fd5b506102e0600435610eb8565b3480156103e157600080fd5b5061024d600160a060020a0360043581169060243581169060443590606435906084359060a4359060c4359060e4351661010435610f33565b34801561042657600080fd5b506102e0610f54565b34801561043b57600080fd5b506102a5600160a060020a0360043581169060243516610fc7565b34801561046257600080fd5b506102e0611011565b34801561047757600080fd5b5061024d600435611084565b34801561048f57600080fd5b506102e06110ce565b3480156104a457600080fd5b506102e0611141565b3480156104b957600080fd5b506102046111b9565b3480156104ce57600080fd5b506102a560043560243560443560643561122d565b3480156104ef57600080fd5b506102046112cf565b34801561050457600080fd5b5061024d600160a060020a0360043581169060243581169060443590606435906084359060a4359060c4359060e43581169061010435906101243516611343565b34801561055157600080fd5b506102e061136e565b34801561056657600080fd5b5061056f6113e1565b6040805167ffffffffffffffff9485168152928416602084015292168183015290519081900360600190f35b3480156105a757600080fd5b506102a56004356113eb565b3480156105bf57600080fd5b5061024d60048035600160a060020a03169060248035916044359182019101356114e2565b3480156105f057600080fd5b506102a560043561157a565b34801561060857600080fd5b506102a5600435611689565b34801561062057600080fd5b506102a560043561178b565b34801561063857600080fd5b506102e060043561189a565b34801561065057600080fd5b506102a56004356118d7565b34801561066857600080fd5b50610204611978565b34801561067d57600080fd5b506102e06119b8565b34801561069257600080fd5b5061024d600435611a2b565b3480156106aa57600080fd5b506102a5600435611a7b565b3480156106c257600080fd5b506102a5600160a060020a0360043516611b1c565b3480156106e357600080fd5b506102e0611b56565b3480156106f857600080fd5b506102e0611bc9565b60006002600060405160200180807f657263363737746f6b656e000000000000000000000000000000000000000000815250600b0190506040516020818303038152906040526040518082805190602001908083835b602083106107765780518252601f199092019160209182019101610757565b51815160209384036101000a6000190180199092169116179052604080519290940182900390912086528501959095529290920160002054600160a060020a0316949350505050565b60006107c9610701565b905090565b6000600460008360405160200180807f72656c617965644d657373616765730000000000000000000000000000000000815250600f0182600019166000191681526020019150506040516020818303038152906040526040518082805190602001908083835b602083106108535780518252601f199092019160209182019101610834565b51815160209384036101000a600019018019909216911617905260408051929094018290039091208652850195909552929092016000205460ff1695945050505050565b60008060008061096f86868080601f0160208091040260200160405190810160405280939291908181526020018383808284378201915050505050508d8d808060200260200160405190810160405280939291908181526020018383602002808284378201915050505050508c8c808060200260200160405190810160405280939291908181526020018383602002808284378201915050505050508b8b808060200260200160405190810160405280939291908181526020018383602002808284375061096a94506112cf9350505050565b611c3c565b6109a886868080601f01602080910402602001604051908101604052809392919081815260200183838082843750611ea9945050505050565b92965090945092509050600160a060020a03811630146109c757600080fd5b6109d0826107ce565b156109da57600080fd5b6109e5826001611eef565b6109ef8484611fc1565b15156109fa57600080fd5b60408051600160a060020a03861681526020810185905280820184905290517f4ab7d581336d92edbea22636a613e8e76c99ac7f91137c1523db38dbfb3bf3299181900360600190a1505050505050505050505050565b610a596111b9565b600160a060020a03163314610a6d57600080fd5b610a76816120db565b50565b60008060008360405160200180807f746f74616c5370656e74506572446179000000000000000000000000000000008152506010018281526020019150506040516020818303038152906040526040518082805190602001908083835b60208310610af55780518252601f199092019160209182019101610ad6565b51815160209384036101000a600019018019909216911617905260408051929094018290039091208652850195909552929092016000205495945050505050565b60006004600060405160200180807f6973496e697469616c697a656400000000000000000000000000000000000000815250600d0190506040516020818303038152906040526040518082805190602001908083835b60208310610bab5780518252601f199092019160209182019101610b8c565b51815160209384036101000a600019018019909216911617905260408051929094018290039091208652850195909552929092016000205460ff16949350505050565b610bf66111b9565b600160a060020a03163314610c0a57600080fd5b604080517f08c379a000000000000000000000000000000000000000000000000000000000815260206004820152600a60248201527f6465707265636174656400000000000000000000000000000000000000000000604482015290519081900360640190fd5b62015180420490565b600080600060405160200180807f7265717569726564426c6f636b436f6e6669726d6174696f6e73000000000000815250601a0190506040516020818303038152906040526040518082805190602001908083835b60208310610cee5780518252601f199092019160209182019101610ccf565b51815160209384036101000a6000190180199092169116179052604080519290940182900390912086528501959095529290920160002054949350505050565b600060405160200180807f6572633637372d746f2d65726332302d636f726500000000000000000000000081525060140190506040516020818303038152906040526040518082805190602001908083835b60208310610d9f5780518252601f199092019160209182019101610d80565b6001836020036101000a0380198251168184511680821785525050505050509050019150506040518091039020905090565b600080600060405160200180807f657865637574696f6e4461696c794c696d697400000000000000000000000000815250601301905060405160208183030381529060405260405180828051906020019080838360208310610cee5780518252601f199092019160209182019101610ccf565b60006002600060405160200180807f66616c6c6261636b526563697069656e740000000000000000000000000000008152506011019050604051602081830303815290604052604051808280519060200190808383602083106107765780518252601f199092019160209182019101610757565b60008060008360405160200180807f746f74616c45786563757465645065724461790000000000000000000000000081525060130182815260200191505060405160208183030381529060405260405180828051906020019080838360208310610af55780518252601f199092019160209182019101610ad6565b6000610f468a8a8a8a8a8a8a8a8a6121cd565b9a9950505050505050505050565b600080600060405160200180807f6461696c794c696d697400000000000000000000000000000000000000000000815250600a01905060405160208183030381529060405260405180828051906020019080838360208310610cee5780518252601f199092019160209182019101610ccf565b610fcf611978565b600160a060020a03163314610fe357600080fd5b610feb6107bf565b600160a060020a038381169116141561100357600080fd5b61100d8282612861565b5050565b600080600060405160200180807f66656550657263656e7400000000000000000000000000000000000000000000815250600a01905060405160208183030381529060405260405180828051906020019080838360208310610cee5780518252601f199092019160209182019101610ccf565b6000806110a78361109b611096610c71565b610eb8565b9063ffffffff612a1d16565b9050806110b2610dd1565b101580156110c757506110c36110ce565b8311155b9392505050565b600080600060405160200180807f657865637574696f6e4d61785065725478000000000000000000000000000000815250601101905060405160208183030381529060405260405180828051906020019080838360208310610cee5780518252601f199092019160209182019101610ccf565b600061114b6112cf565b600160a060020a0316638d0680436040518163ffffffff1660e060020a028152600401602060405180830381600087803b15801561118857600080fd5b505af115801561119c573d6000803e3d6000fd5b505050506040513d60208110156111b257600080fd5b5051905090565b60006002600060405160200180807f6f776e65720000000000000000000000000000000000000000000000000000008152506005019050604051602081830303815290604052604051808280519060200190808383602083106107765780518252601f199092019160209182019101610757565b6112356111b9565b600160a060020a0316331461124957600080fd5b611251610701565b600160a060020a03166398a86954858585856040518563ffffffff1660e060020a02815260040180858152602001848152602001838152602001828152602001945050505050600060405180830381600087803b1580156112b157600080fd5b505af11580156112c5573d6000803e3d6000fd5b5050505050505050565b60006002600060405160200180807f76616c696461746f72436f6e74726163740000000000000000000000000000008152506011019050604051602081830303815290604052604051808280519060200190808383602083106107765780518252601f199092019160209182019101610757565b600061134e826120db565b61135f8b8b8b8b8b8b8b8b8b610f33565b9b9a5050505050505050505050565b600080600060405160200180807f6465706c6f7965644174426c6f636b0000000000000000000000000000000000815250600f01905060405160208183030381529060405260405180828051906020019080838360208310610cee5780518252601f199092019160209182019101610ccf565b6002806000909192565b6113f36111b9565b600160a060020a0316331461140757600080fd5b61140f610f54565b811080156114235750611420611b56565b81105b151561142e57600080fd5b8060008060405160200180807f6d696e506572547800000000000000000000000000000000000000000000000081525060080190506040516020818303038152906040526040518082805190602001908083835b602083106114a15780518252601f199092019160209182019101611482565b51815160209384036101000a600019018019909216911617905260408051929094018290039091208652850195909552929092016000209390935550505050565b60006114ec610701565b600160a060020a0316331461150057600080fd5b611508610701565b600160a060020a03166342966c68856040518263ffffffff1660e060020a02815260040180828152602001915050600060405180830381600087803b15801561155057600080fd5b505af1158015611564573d6000803e3d6000fd5b50505050611572858561100d565b949350505050565b6115826111b9565b600160a060020a0316331461159657600080fd5b600081116115a357600080fd5b8060008060405160200180807f7265717569726564426c6f636b436f6e6669726d6174696f6e73000000000000815250601a0190506040516020818303038152906040526040518082805190602001908083835b602083106116165780518252601f1990920191602091820191016115f7565b51815160001960209485036101000a019081169019919091161790526040805194909201849003909320865285830196909652509284016000209490945550815184815291517f4fb76205cd57c896b21511d2114137d8e901b4ccd659e1a0f97d6306795264fb9350918290030190a150565b6116916111b9565b600160a060020a031633146116a557600080fd5b8060008060405160200180807f6461696c794c696d697400000000000000000000000000000000000000000000815250600a0190506040516020818303038152906040526040518082805190602001908083835b602083106117185780518252601f1990920191602091820191016116f9565b51815160001960209485036101000a019081169019919091161790526040805194909201849003909320865285830196909652509284016000209490945550815184815291517fad4123ae17c414d9c6d2fec478b402e6b01856cc250fd01fbfd252fda0089d3c9350918290030190a150565b6117936111b9565b600160a060020a031633146117a757600080fd5b600081116117b457600080fd5b8060008060405160200180807f676173507269636500000000000000000000000000000000000000000000000081525060080190506040516020818303038152906040526040518082805190602001908083835b602083106118275780518252601f199092019160209182019101611808565b51815160001960209485036101000a019081169019919091161790526040805194909201849003909320865285830196909652509284016000209490945550815184815291517f52264b89e0fceafb26e79fd49ef8a366eb6297483bf4035b027f0c99a7ad512e9350918290030190a150565b60006127106110c76118ca826118be6118b1611011565b879063ffffffff612a2c16565b9063ffffffff612a5716565b849063ffffffff612a6e16565b6118df6111b9565b600160a060020a031633146118f357600080fd5b6118fb610f54565b811061190657600080fd5b8060008060405160200180807f6d617850657254780000000000000000000000000000000000000000000000008152506008019050604051602081830303815290604052604051808280519060200190808383602083106114a15780518252601f199092019160209182019101611482565b600030600160a060020a031663025313a26040518163ffffffff1660e060020a028152600401602060405180830381600087803b15801561118857600080fd5b600080600060405160200180807f6d696e5065725478000000000000000000000000000000000000000000000000815250600801905060405160208183030381529060405260405180828051906020019080838360208310610cee5780518252601f199092019160209182019101610ccf565b600080611a428361109b611a3d610c71565b610a79565b905080611a4d610f54565b10158015611a625750611a5e611b56565b8311155b80156110c75750611a716119b8565b9092101592915050565b611a836111b9565b600160a060020a03163314611a9757600080fd5b611a9f610dd1565b8110611aaa57600080fd5b8060008060405160200180807f657865637574696f6e4d617850657254780000000000000000000000000000008152506011019050604051602081830303815290604052604051808280519060200190808383602083106114a15780518252601f199092019160209182019101611482565b611b246111b9565b600160a060020a03163314611b3857600080fd5b600160a060020a0381161515611b4d57600080fd5b610a7681612a80565b600080600060405160200180807f6d61785065725478000000000000000000000000000000000000000000000000815250600801905060405160208183030381529060405260405180828051906020019080838360208310610cee5780518252601f199092019160209182019101610ccf565b600080600060405160200180807f6761735072696365000000000000000000000000000000000000000000000000815250600801905060405160208183030381529060405260405180828051906020019080838360208310610cee5780518252601f199092019160209182019101610ccf565b6000806060600080611c4d8a612b3e565b1515611c5857600080fd5b85600160a060020a0316638d0680436040518163ffffffff1660e060020a028152600401602060405180830381600087803b158015611c9657600080fd5b505af1158015611caa573d6000803e3d6000fd5b505050506040513d6020811015611cc057600080fd5b50518951909550851115611cd357600080fd5b611cdc8a612b52565b935084604051908082528060200260200182016040528015611d08578160200160208202803883390190505b509250600091505b84821015611e9d576001848a84815181101515611d2957fe5b906020019060200201518a85815181101515611d4157fe5b906020019060200201518a86815181101515611d5957fe5b60209081029091018101516040805160008082528185018084529790975260ff9095168582015260608501939093526080840152905160a0808401949293601f19830193908390039091019190865af1158015611dba573d6000803e3d6000fd5b50505060206040510351905085600160a060020a031663facd743b826040518263ffffffff1660e060020a0281526004018082600160a060020a0316600160a060020a03168152602001915050602060405180830381600087803b158015611e2157600080fd5b505af1158015611e35573d6000803e3d6000fd5b505050506040513d6020811015611e4b57600080fd5b50511515611e5857600080fd5b611e628382612d17565b15611e6c57600080fd5b808383815181101515611e7b57fe5b600160a060020a03909216602092830290910190910152600190910190611d10565b50505050505050505050565b600080600080611eb885612b3e565b1515611ec357600080fd5b600160a060020a0360148601511693506034850151925060548501519150606885015190509193509193565b80600460008460405160200180807f72656c617965644d657373616765730000000000000000000000000000000000815250600f0182600019166000191681526020019150506040516020818303038152906040526040518082805190602001908083835b60208310611f735780518252601f199092019160209182019101611f54565b51815160209384036101000a60001901801990921691161790526040805192909401829003909120865285019590955292909201600020805460ff1916941515949094179093555050505050565b600080611fce8484612d70565b15156120cf57611fdc610e44565b9050600160a060020a038116151561207b57604080517f08c379a000000000000000000000000000000000000000000000000000000000815260206004820152602360248201527f66616c6c6261636b20726563697069656e7420776173206e6f7420617373696760448201527f6e65640000000000000000000000000000000000000000000000000000000000606482015290519081900360840190fd5b6120858184612d70565b5080600160a060020a031684600160a060020a03167f4b186bbb80392b9b4a5cdf5f78a4f6ecdb8da0082f37d2cf24a6885e9f61fbbe60405160405180910390a3600191506120d4565b600191505b5092915050565b600160a060020a03811615156120f057600080fd5b806002600060405160200180807f66616c6c6261636b526563697069656e7400000000000000000000000000000081525060110190506040516020818303038152906040526040518082805190602001908083835b602083106121645780518252601f199092019160209182019101612145565b51815160209384036101000a60001901801990921691161790526040805192909401829003909120865285019590955292909201600020805473ffffffffffffffffffffffffffffffffffffffff1916600160a060020a03959095169490941790935550505050565b60006121d7610b36565b156121e157600080fd5b600160a060020a038a16158015906121fd57506121fd8a612e0f565b151561220857600080fd5b87151561221457600080fd5b6000871161222157600080fd5b84841061222d57600080fd5b600160a060020a038316151561224257600080fd5b61271082106122b257604080517f08c379a000000000000000000000000000000000000000000000000000000000815260206004820152601360248201527f496e76616c6964206665652070657263656e7400000000000000000000000000604482015290519081900360640190fd5b896002600060405160200180807f76616c696461746f72436f6e747261637400000000000000000000000000000081525060110190506040516020818303038152906040526040518082805190602001908083835b602083106123265780518252601f199092019160209182019101612307565b51815160209384036101000a60001901801990921691161790526040805192909401829003909120865285019590955292909201600020805473ffffffffffffffffffffffffffffffffffffffff1916600160a060020a0395909516949094179093555061239791508a9050612e17565b4360008060405160200180807f6465706c6f7965644174426c6f636b0000000000000000000000000000000000815250600f0190506040516020818303038152906040526040518082805190602001908083835b6020831061240a5780518252601f1990920191602091820191016123eb565b51815160209384036101000a6000190180199092169116179052604080519290940182900390912086528581019690965250928301600090812095909555505080517f7265717569726564426c6f636b436f6e6669726d6174696f6e73000000000000818401528151601a818303018152603a9091019182905280518c949384939182918401908083835b602083106124b45780518252601f199092019160209182019101612495565b51815160209384036101000a6000190180199092169116179052604080519290940182900390912086528581019690965250928301600090812095909555505080517f6761735072696365000000000000000000000000000000000000000000000000818401528151600881830301815260289091019182905280518b949384939182918401908083835b6020831061255e5780518252601f19909201916020918201910161253f565b51815160209384036101000a6000190180199092169116179052604080519290940182900390912086528581019690965250928301600090812095909555505080517f6d61785065725478000000000000000000000000000000000000000000000000818401528151600881830301815260289091019182905280518a949384939182918401908083835b602083106126085780518252601f1990920191602091820191016125e9565b51815160209384036101000a6000190180199092169116179052604080519290940182900390912086528581019690965250928301600090812095909555505080517f657865637574696f6e4461696c794c696d6974000000000000000000000000008184015281516013818303018152603390910191829052805189949384939182918401908083835b602083106126b25780518252601f199092019160209182019101612693565b51815160209384036101000a6000190180199092169116179052604080519290940182900390912086528581019690965250928301600090812095909555505080517f657865637574696f6e4d617850657254780000000000000000000000000000008184015281516011818303018152603190910191829052805188949384939182918401908083835b6020831061275c5780518252601f19909201916020918201910161273d565b51815160209384036101000a6000190180199092169116179052604080519290940182900390912086528581019690965250928301600090812095909555505080517f66656550657263656e7400000000000000000000000000000000000000000000818401528151600a818303018152602a90910191829052805186949384939182918401908083835b602083106128065780518252601f1990920191602091820191016127e7565b51815160209384036101000a60001901801990921691161790526040805192909401829003909120865285019590955292909201600020939093555061284f9150849050612a80565b6128596001612e20565b610f46610b36565b60008061286c611978565b600160a060020a0316331461288057600080fd5b600160a060020a038316151561289557600080fd5b600160a060020a03841615156128e157604051600160a060020a03841690303180156108fc02916000818181858888f193505050501580156128db573d6000803e3d6000fd5b50612a17565b604080517f70a082310000000000000000000000000000000000000000000000000000000081523060048201529051859350600160a060020a038416916370a082319160248083019260209291908290030181600087803b15801561294557600080fd5b505af1158015612959573d6000803e3d6000fd5b505050506040513d602081101561296f57600080fd5b5051604080517fa9059cbb000000000000000000000000000000000000000000000000000000008152600160a060020a0386811660048301526024820184905291519293509084169163a9059cbb916044808201926020929091908290030181600087803b1580156129e057600080fd5b505af11580156129f4573d6000803e3d6000fd5b505050506040513d6020811015612a0a57600080fd5b50511515612a1757600080fd5b50505050565b6000828201838110156110c757fe5b600080831515612a3f57600091506120d4565b50828202828482811515612a4f57fe5b04146110c757fe5b6000808284811515612a6557fe5b04949350505050565b600082821115612a7a57fe5b50900390565b7f8be0079c531659141344cd1fd0a4f28419497f9722a3daafe3b4186f6b6457e0612aa96111b9565b60408051600160a060020a03928316815291841660208301528051918290030190a1806002600060405160200180807f6f776e65720000000000000000000000000000000000000000000000000000008152506005019050604051602081830303815290604052604051808280519060200190808383602083106121645780518252601f199092019160209182019101612145565b6000612b48612ee1565b8251149050919050565b604080518082018252601a81527f19457468657265756d205369676e6564204d6573736167653a0a000000000000602080830191825283518085018552600381527f313034000000000000000000000000000000000000000000000000000000000081830152935183516000959385938593899391019182918083835b60208310612bee5780518252601f199092019160209182019101612bcf565b51815160209384036101000a600019018019909216911617905286519190930192860191508083835b60208310612c365780518252601f199092019160209182019101612c17565b51815160209384036101000a600019018019909216911617905285519190930192850191508083835b60208310612c7e5780518252601f199092019160209182019101612c5f565b6001836020036101000a03801982511681845116808217855250505050505090500193505050506040516020818303038152906040526040518082805190602001908083835b60208310612ce35780518252601f199092019160209182019101612cc4565b5181516020939093036101000a60001901801990911692169190911790526040519201829003909120979650505050505050565b6000805b8351811015612d665782600160a060020a03168482815181101515612d3c57fe5b90602001906020020151600160a060020a03161415612d5e57600191506120d4565b600101612d1b565b5060009392505050565b6000612d7a610701565b600160a060020a03166340c10f1984846040518363ffffffff1660e060020a0281526004018083600160a060020a0316600160a060020a0316815260200182815260200192505050602060405180830381600087803b158015612ddc57600080fd5b505af1158015612df0573d6000803e3d6000fd5b505050506040513d6020811015612e0657600080fd5b50519392505050565b6000903b1190565b610a7681612ee6565b806004600060405160200180807f6973496e697469616c697a656400000000000000000000000000000000000000815250600d0190506040516020818303038152906040526040518082805190602001908083835b60208310612e945780518252601f199092019160209182019101612e75565b51815160209384036101000a60001901801990921691161790526040805192909401829003909120865285019590955292909201600020805460ff19169415159490941790935550505050565b606890565b600160a060020a03811615801590612f025750612f0281612e0f565b1515612f0d57600080fd5b806002600060405160200180807f657263363737746f6b656e000000000000000000000000000000000000000000815250600b019050604051602081830303815290604052604051808280519060200190808383602083106121645780518252601f1990920191602091820191016121455600a165627a7a72305820578b01f9c526dc3032ef73a47029a65a2dc22e927ce487b3f9d462494139b3c60029",
  "source": "pragma solidity 0.4.24;\n\nimport \"./ForeignBridgeErcToErcV3.sol\";\nimport \"../ERC677Bridge.sol\";\nimport \"../../ERC677Receiver.sol\";\n\ncontract ForeignBridgeErc677ToErc20 is ForeignBridgeErcToErcV3, ERC677Receiver, ERC677Bridge {\n    event RecipientRedirected(address indexed from, address indexed to);\n\n    function getBridgeMode() public pure returns(bytes4 _data) {\n        return bytes4(keccak256(abi.encodePacked(\"erc677-to-erc20-core\")));\n    }\n\n    function erc20token() public view returns (ERC20Basic) {\n        return ERC20Basic(erc677token());\n    }\n\n    function setErc20token(address _token) private {\n        setErc677token(_token);\n    }\n\n    function tokenTransfer(address _recipient, uint256 _amount) internal returns(bool) {\n        return erc677token().mint(_recipient, _amount);\n    }\n\n    function onTokenTransfer(address _from, uint256 _value, bytes /*_data*/) external returns(bool) {\n        require(msg.sender == address(erc677token()));\n        erc677token().burn(_value);\n        fireEventOnTokenTransfer(_from, _value);\n    }\n\n    function onExecuteMessage(address _recipient, uint256 _amount)\n        internal\n        returns (bool)\n    {\n        if (!tokenTransfer(_recipient, _amount)) {\n            address _fallbackRecipient = fallbackRecipient();\n            require(\n                _fallbackRecipient != address(0),\n                \"fallback recipient was not assigned\"\n            );\n            tokenTransfer(_fallbackRecipient, _amount);\n            emit RecipientRedirected(_recipient, _fallbackRecipient);\n            return true;\n        }\n        return true;\n    }\n}",
  "sourcePath": "/home/wayne/git/tt/thunder_bridge/contracts/contracts/upgradeable_contracts/erc20_to_erc20/ForeignBridgeErc677ToErc20.sol",
  "compiler": {
    "name": "solc",
    "version": "0.4.24+commit.e67f0147.Emscripten.clang"
  },
  "schemaVersion": "3.4.2",
  "updatedAt": "2021-09-17T10:06:44.180Z",
  "devdoc": {
    "methods": {
      "feePercent()": {
        "details": "Returns current fee percent. It has 2 decimal places. e.g. value 1337 has to be interpreted as 13.37%",
        "return": "fee percent."
      },
      "owner()": {
        "details": "Tells the address of the owner",
        "return": "the address of the owner"
      },
      "transferOwnership(address)": {
        "details": "Allows the current owner to transfer control of the contract to a newOwner.",
        "params": {
          "newOwner": "the address to transfer ownership to."
        }
      }
    }
  },
  "userdoc": {
    "methods": {}
  }
}