{
  "contractName": "HomeBridgeErc677ToErc20",
  "abi": [
    {
      "constant": true,
      "inputs": [
        {
          "name": "_message",
          "type": "bytes32"
        }
      ],
      "name": "numMessagesSigned",
      "outputs": [
        {
          "name": "",
          "type": "uint256"
        }
      ],
      "payable": false,
      "stateMutability": "view",
      "type": "function"
    },
    {
      "constant": true,
      "inputs": [
        {
          "name": "_hash",
          "type": "bytes32"
        },
        {
          "name": "_index",
          "type": "uint256"
        }
      ],
      "name": "signature",
      "outputs": [
        {
          "name": "",
          "type": "bytes"
        }
      ],
      "payable": false,
      "stateMutability": "view",
      "type": "function"
    },
    {
      "constant": true,
      "inputs": [],
      "name": "erc20token",
      "outputs": [
        {
          "name": "",
          "type": "address"
        }
      ],
      "payable": false,
      "stateMutability": "view",
      "type": "function"
    },
    {
      "constant": true,
      "inputs": [
        {
          "name": "_txHash",
          "type": "bytes32"
        }
      ],
      "name": "fixedAssets",
      "outputs": [
        {
          "name": "",
          "type": "bool"
        }
      ],
      "payable": false,
      "stateMutability": "view",
      "type": "function"
    },
    {
      "constant": true,
      "inputs": [
        {
          "name": "_day",
          "type": "uint256"
        }
      ],
      "name": "totalSpentPerDay",
      "outputs": [
        {
          "name": "",
          "type": "uint256"
        }
      ],
      "payable": false,
      "stateMutability": "view",
      "type": "function"
    },
    {
      "constant": true,
      "inputs": [],
      "name": "isInitialized",
      "outputs": [
        {
          "name": "",
          "type": "bool"
        }
      ],
      "payable": false,
      "stateMutability": "view",
      "type": "function"
    },
    {
      "constant": false,
      "inputs": [
        {
          "name": "_dailyLimit",
          "type": "uint256"
        }
      ],
      "name": "setExecutionDailyLimit",
      "outputs": [],
      "payable": false,
      "stateMutability": "nonpayable",
      "type": "function"
    },
    {
      "constant": true,
      "inputs": [],
      "name": "getCurrentDay",
      "outputs": [
        {
          "name": "",
          "type": "uint256"
        }
      ],
      "payable": false,
      "stateMutability": "view",
      "type": "function"
    },
    {
      "constant": true,
      "inputs": [],
      "name": "requiredBlockConfirmations",
      "outputs": [
        {
          "name": "",
          "type": "uint256"
        }
      ],
      "payable": false,
      "stateMutability": "view",
      "type": "function"
    },
    {
      "constant": true,
      "inputs": [],
      "name": "requiredMessageLength",
      "outputs": [
        {
          "name": "",
          "type": "uint256"
        }
      ],
      "payable": false,
      "stateMutability": "pure",
      "type": "function"
    },
    {
      "constant": true,
      "inputs": [],
      "name": "executionDailyLimit",
      "outputs": [
        {
          "name": "",
          "type": "uint256"
        }
      ],
      "payable": false,
      "stateMutability": "view",
      "type": "function"
    },
    {
      "constant": true,
      "inputs": [
        {
          "name": "_hash",
          "type": "bytes32"
        }
      ],
      "name": "message",
      "outputs": [
        {
          "name": "",
          "type": "bytes"
        }
      ],
      "payable": false,
      "stateMutability": "view",
      "type": "function"
    },
    {
      "constant": true,
      "inputs": [
        {
          "name": "_day",
          "type": "uint256"
        }
      ],
      "name": "totalExecutedPerDay",
      "outputs": [
        {
          "name": "",
          "type": "uint256"
        }
      ],
      "payable": false,
      "stateMutability": "view",
      "type": "function"
    },
    {
      "constant": false,
      "inputs": [
        {
          "name": "signature",
          "type": "bytes"
        },
        {
          "name": "message",
          "type": "bytes"
        }
      ],
      "name": "submitSignature",
      "outputs": [],
      "payable": false,
      "stateMutability": "nonpayable",
      "type": "function"
    },
    {
      "constant": false,
      "inputs": [
        {
          "name": "txHash",
          "type": "bytes32"
        },
        {
          "name": "unlockOnForeign",
          "type": "bool"
        }
      ],
      "name": "fixAssetsAboveLimits",
      "outputs": [],
      "payable": false,
      "stateMutability": "nonpayable",
      "type": "function"
    },
    {
      "constant": true,
      "inputs": [],
      "name": "dailyLimit",
      "outputs": [
        {
          "name": "",
          "type": "uint256"
        }
      ],
      "payable": false,
      "stateMutability": "view",
      "type": "function"
    },
    {
      "constant": false,
      "inputs": [
        {
          "name": "_token",
          "type": "address"
        },
        {
          "name": "_to",
          "type": "address"
        }
      ],
      "name": "claimTokens",
      "outputs": [],
      "payable": false,
      "stateMutability": "nonpayable",
      "type": "function"
    },
    {
      "constant": true,
      "inputs": [
        {
          "name": "_withdrawal",
          "type": "bytes32"
        }
      ],
      "name": "numAffirmationsSigned",
      "outputs": [
        {
          "name": "",
          "type": "uint256"
        }
      ],
      "payable": false,
      "stateMutability": "view",
      "type": "function"
    },
    {
      "constant": true,
      "inputs": [
        {
          "name": "_withdrawal",
          "type": "bytes32"
        }
      ],
      "name": "affirmationsSigned",
      "outputs": [
        {
          "name": "",
          "type": "bool"
        }
      ],
      "payable": false,
      "stateMutability": "view",
      "type": "function"
    },
    {
      "constant": false,
      "inputs": [
        {
          "name": "_feePercent",
          "type": "uint256"
        }
      ],
      "name": "setFeePercent",
      "outputs": [],
      "payable": false,
      "stateMutability": "nonpayable",
      "type": "function"
    },
    {
      "constant": true,
      "inputs": [],
      "name": "feePercent",
      "outputs": [
        {
          "name": "",
          "type": "uint256"
        }
      ],
      "payable": false,
      "stateMutability": "view",
      "type": "function"
    },
    {
      "constant": true,
      "inputs": [
        {
          "name": "_amount",
          "type": "uint256"
        }
      ],
      "name": "withinExecutionLimit",
      "outputs": [
        {
          "name": "",
          "type": "bool"
        }
      ],
      "payable": false,
      "stateMutability": "view",
      "type": "function"
    },
    {
      "constant": true,
      "inputs": [],
      "name": "executionMaxPerTx",
      "outputs": [
        {
          "name": "",
          "type": "uint256"
        }
      ],
      "payable": false,
      "stateMutability": "view",
      "type": "function"
    },
    {
      "constant": true,
      "inputs": [],
      "name": "requiredSignatures",
      "outputs": [
        {
          "name": "",
          "type": "uint256"
        }
      ],
      "payable": false,
      "stateMutability": "view",
      "type": "function"
    },
    {
      "constant": true,
      "inputs": [],
      "name": "owner",
      "outputs": [
        {
          "name": "",
          "type": "address"
        }
      ],
      "payable": false,
      "stateMutability": "view",
      "type": "function"
    },
    {
      "constant": true,
      "inputs": [
        {
          "name": "_message",
          "type": "bytes32"
        }
      ],
      "name": "messagesSigned",
      "outputs": [
        {
          "name": "",
          "type": "bool"
        }
      ],
      "payable": false,
      "stateMutability": "view",
      "type": "function"
    },
    {
      "constant": false,
      "inputs": [
        {
          "name": "_periodLength",
          "type": "uint256"
        },
        {
          "name": "_maxPeriodFunds",
          "type": "uint256"
        },
        {
          "name": "_threshold",
          "type": "uint256"
        },
        {
          "name": "_amount",
          "type": "uint256"
        }
      ],
      "name": "setFundingRules",
      "outputs": [],
      "payable": false,
      "stateMutability": "nonpayable",
      "type": "function"
    },
    {
      "constant": true,
      "inputs": [],
      "name": "validatorContract",
      "outputs": [
        {
          "name": "",
          "type": "address"
        }
      ],
      "payable": false,
      "stateMutability": "view",
      "type": "function"
    },
    {
      "constant": false,
      "inputs": [
        {
          "name": "recipient",
          "type": "address"
        },
        {
          "name": "value",
          "type": "uint256"
        },
        {
          "name": "transactionHash",
          "type": "bytes32"
        }
      ],
      "name": "executeAffirmation",
      "outputs": [],
      "payable": false,
      "stateMutability": "nonpayable",
      "type": "function"
    },
    {
      "constant": true,
      "inputs": [],
      "name": "deployedAtBlock",
      "outputs": [
        {
          "name": "",
          "type": "uint256"
        }
      ],
      "payable": false,
      "stateMutability": "view",
      "type": "function"
    },
    {
      "constant": true,
      "inputs": [],
      "name": "getBridgeInterfacesVersion",
      "outputs": [
        {
          "name": "major",
          "type": "uint64"
        },
        {
          "name": "minor",
          "type": "uint64"
        },
        {
          "name": "patch",
          "type": "uint64"
        }
      ],
      "payable": false,
      "stateMutability": "pure",
      "type": "function"
    },
    {
      "constant": true,
      "inputs": [],
      "name": "outOfLimitAmount",
      "outputs": [
        {
          "name": "",
          "type": "uint256"
        }
      ],
      "payable": false,
      "stateMutability": "view",
      "type": "function"
    },
    {
      "constant": false,
      "inputs": [
        {
          "name": "_minPerTx",
          "type": "uint256"
        }
      ],
      "name": "setMinPerTx",
      "outputs": [],
      "payable": false,
      "stateMutability": "nonpayable",
      "type": "function"
    },
    {
      "constant": false,
      "inputs": [
        {
          "name": "_from",
          "type": "address"
        },
        {
          "name": "_value",
          "type": "uint256"
        },
        {
          "name": "",
          "type": "bytes"
        }
      ],
      "name": "onTokenTransfer",
      "outputs": [
        {
          "name": "",
          "type": "bool"
        }
      ],
      "payable": false,
      "stateMutability": "nonpayable",
      "type": "function"
    },
    {
      "constant": false,
      "inputs": [
        {
          "name": "_blockConfirmations",
          "type": "uint256"
        }
      ],
      "name": "setRequiredBlockConfirmations",
      "outputs": [],
      "payable": false,
      "stateMutability": "nonpayable",
      "type": "function"
    },
    {
      "constant": false,
      "inputs": [
        {
          "name": "_dailyLimit",
          "type": "uint256"
        }
      ],
      "name": "setDailyLimit",
      "outputs": [],
      "payable": false,
      "stateMutability": "nonpayable",
      "type": "function"
    },
    {
      "constant": false,
      "inputs": [
        {
          "name": "_gasPrice",
          "type": "uint256"
        }
      ],
      "name": "setGasPrice",
      "outputs": [],
      "payable": false,
      "stateMutability": "nonpayable",
      "type": "function"
    },
    {
      "constant": true,
      "inputs": [
        {
          "name": "_value",
          "type": "uint256"
        }
      ],
      "name": "subtractFee",
      "outputs": [
        {
          "name": "",
          "type": "uint256"
        }
      ],
      "payable": false,
      "stateMutability": "view",
      "type": "function"
    },
    {
      "constant": false,
      "inputs": [
        {
          "name": "_maxPerTx",
          "type": "uint256"
        }
      ],
      "name": "setMaxPerTx",
      "outputs": [],
      "payable": false,
      "stateMutability": "nonpayable",
      "type": "function"
    },
    {
      "constant": true,
      "inputs": [],
      "name": "upgradeabilityAdmin",
      "outputs": [
        {
          "name": "",
          "type": "address"
        }
      ],
      "payable": false,
      "stateMutability": "view",
      "type": "function"
    },
    {
      "constant": true,
      "inputs": [],
      "name": "minPerTx",
      "outputs": [
        {
          "name": "",
          "type": "uint256"
        }
      ],
      "payable": false,
      "stateMutability": "view",
      "type": "function"
    },
    {
      "constant": true,
      "inputs": [
        {
          "name": "_amount",
          "type": "uint256"
        }
      ],
      "name": "withinLimit",
      "outputs": [
        {
          "name": "",
          "type": "bool"
        }
      ],
      "payable": false,
      "stateMutability": "view",
      "type": "function"
    },
    {
      "constant": false,
      "inputs": [
        {
          "name": "_maxPerTx",
          "type": "uint256"
        }
      ],
      "name": "setExecutionMaxPerTx",
      "outputs": [],
      "payable": false,
      "stateMutability": "nonpayable",
      "type": "function"
    },
    {
      "constant": false,
      "inputs": [
        {
          "name": "newOwner",
          "type": "address"
        }
      ],
      "name": "transferOwnership",
      "outputs": [],
      "payable": false,
      "stateMutability": "nonpayable",
      "type": "function"
    },
    {
      "constant": true,
      "inputs": [],
      "name": "maxPerTx",
      "outputs": [
        {
          "name": "",
          "type": "uint256"
        }
      ],
      "payable": false,
      "stateMutability": "view",
      "type": "function"
    },
    {
      "constant": true,
      "inputs": [],
      "name": "gasPrice",
      "outputs": [
        {
          "name": "",
          "type": "uint256"
        }
      ],
      "payable": false,
      "stateMutability": "view",
      "type": "function"
    },
    {
      "constant": true,
      "inputs": [
        {
          "name": "_number",
          "type": "uint256"
        }
      ],
      "name": "isAlreadyProcessed",
      "outputs": [
        {
          "name": "",
          "type": "bool"
        }
      ],
      "payable": false,
      "stateMutability": "pure",
      "type": "function"
    },
    {
      "payable": true,
      "stateMutability": "payable",
      "type": "fallback"
    },
    {
      "anonymous": false,
      "inputs": [
        {
          "indexed": false,
          "name": "recipient",
          "type": "address"
        },
        {
          "indexed": false,
          "name": "value",
          "type": "uint256"
        },
        {
          "indexed": false,
          "name": "transactionHash",
          "type": "bytes32"
        }
      ],
      "name": "AmountLimitExceeded",
      "type": "event"
    },
    {
      "anonymous": false,
      "inputs": [
        {
          "indexed": false,
          "name": "newFeePercent",
          "type": "uint256"
        }
      ],
      "name": "FeePercentChanged",
      "type": "event"
    },
    {
      "anonymous": false,
      "inputs": [
        {
          "indexed": false,
          "name": "recipient",
          "type": "address"
        },
        {
          "indexed": false,
          "name": "value",
          "type": "uint256"
        }
      ],
      "name": "UserRequestForSignature",
      "type": "event"
    },
    {
      "anonymous": false,
      "inputs": [
        {
          "indexed": false,
          "name": "recipient",
          "type": "address"
        },
        {
          "indexed": false,
          "name": "value",
          "type": "uint256"
        },
        {
          "indexed": false,
          "name": "transactionHash",
          "type": "bytes32"
        }
      ],
      "name": "AffirmationCompleted",
      "type": "event"
    },
    {
      "anonymous": false,
      "inputs": [
        {
          "indexed": true,
          "name": "signer",
          "type": "address"
        },
        {
          "indexed": false,
          "name": "messageHash",
          "type": "bytes32"
        }
      ],
      "name": "SignedForUserRequest",
      "type": "event"
    },
    {
      "anonymous": false,
      "inputs": [
        {
          "indexed": true,
          "name": "signer",
          "type": "address"
        },
        {
          "indexed": false,
          "name": "transactionHash",
          "type": "bytes32"
        }
      ],
      "name": "SignedForAffirmation",
      "type": "event"
    },
    {
      "anonymous": false,
      "inputs": [
        {
          "indexed": false,
          "name": "authorityResponsibleForRelay",
          "type": "address"
        },
        {
          "indexed": false,
          "name": "messageHash",
          "type": "bytes32"
        },
        {
          "indexed": false,
          "name": "NumberOfCollectedSignatures",
          "type": "uint256"
        }
      ],
      "name": "CollectedSignatures",
      "type": "event"
    },
    {
      "anonymous": false,
      "inputs": [
        {
          "indexed": false,
          "name": "gasPrice",
          "type": "uint256"
        }
      ],
      "name": "GasPriceChanged",
      "type": "event"
    },
    {
      "anonymous": false,
      "inputs": [
        {
          "indexed": false,
          "name": "requiredBlockConfirmations",
          "type": "uint256"
        }
      ],
      "name": "RequiredBlockConfirmationChanged",
      "type": "event"
    },
    {
      "anonymous": false,
      "inputs": [
        {
          "indexed": false,
          "name": "newLimit",
          "type": "uint256"
        }
      ],
      "name": "DailyLimitChanged",
      "type": "event"
    },
    {
      "anonymous": false,
      "inputs": [
        {
          "indexed": false,
          "name": "newLimit",
          "type": "uint256"
        }
      ],
      "name": "ExecutionDailyLimitChanged",
      "type": "event"
    },
    {
      "anonymous": false,
      "inputs": [
        {
          "indexed": false,
          "name": "previousOwner",
          "type": "address"
        },
        {
          "indexed": false,
          "name": "newOwner",
          "type": "address"
        }
      ],
      "name": "OwnershipTransferred",
      "type": "event"
    },
    {
      "constant": false,
      "inputs": [
        {
          "name": "_validatorContract",
          "type": "address"
        },
        {
          "name": "_dailyLimit",
          "type": "uint256"
        },
        {
          "name": "_maxPerTx",
          "type": "uint256"
        },
        {
          "name": "_minPerTx",
          "type": "uint256"
        },
        {
          "name": "_homeGasPrice",
          "type": "uint256"
        },
        {
          "name": "_requiredBlockConfirmations",
          "type": "uint256"
        },
        {
          "name": "_erc20token",
          "type": "address"
        },
        {
          "name": "_foreignDailyLimit",
          "type": "uint256"
        },
        {
          "name": "_foreignMaxPerTx",
          "type": "uint256"
        },
        {
          "name": "_owner",
          "type": "address"
        },
        {
          "name": "_feePercent",
          "type": "uint256"
        }
      ],
      "name": "initialize",
      "outputs": [
        {
          "name": "",
          "type": "bool"
        }
      ],
      "payable": false,
      "stateMutability": "nonpayable",
      "type": "function"
    },
    {
      "constant": true,
      "inputs": [],
      "name": "getBridgeMode",
      "outputs": [
        {
          "name": "_data",
          "type": "bytes4"
        }
      ],
      "payable": false,
      "stateMutability": "pure",
      "type": "function"
    }
  ],
  "bytecode": "0x608060405234801561001057600080fd5b50614803806100206000396000f3006080604052600436106102375763ffffffff60e060020a6000350416630cbf0601811461023c5780631812d996146102665780631dcea427146102f65780632888bb9c146103275780632bd0bb0514610353578063392e53cd1461036b5780633dd95d1b146103805780633e6968b61461039a5780633f0a9f65146103af578063408fef2e146103c4578063437764df146103d957806343b37dd314610423578063490a32c6146104385780634fb3fef714610450578063630cea8e1461046857806364d188eb1461049457806367eeba0c146104b157806369ffa08a146104c65780636ae1a976146104ed5780637698da24146105055780637ce3489b1461051d5780637fd6f15c14610535578063879ce6761461054a5780638aa1949a146105625780638d068043146105775780638da5cb5b1461058c5780638f4b4b98146105a157806398a86954146105b957806399439089146105da578063995b2cff146105ef5780639a454b99146106165780639cb7595a1461062b578063a01893451461066c578063a2a6ca2714610681578063a4c0ed3614610699578063acf5c689146106ca578063b20d30a9146106e2578063bf1fe420146106fa578063c056765614610712578063c6f6f2161461072a578063df0ad3de14610742578063df25f3f014610757578063df8a50f11461076c578063ea9f4968146107bb578063f20151e1146107d3578063f2fde38b146107eb578063f968adbe1461080c578063fe173b9714610821578063ffd19e8c14610836575b600080fd5b34801561024857600080fd5b5061025460043561084e565b60408051918252519081900360200190f35b34801561027257600080fd5b50610281600435602435610913565b6040805160208082528351818301528351919283929083019185019080838360005b838110156102bb5781810151838201526020016102a3565b50505050905090810190601f1680156102e85780820380516001836020036101000a031916815260200191505b509250505060405180910390f35b34801561030257600080fd5b5061030b6109ac565b60408051600160a060020a039092168252519081900360200190f35b34801561033357600080fd5b5061033f600435610a6b565b604080519115158252519081900360200190f35b34801561035f57600080fd5b50610254600435610b34565b34801561037757600080fd5b5061033f610baf565b34801561038c57600080fd5b50610398600435610c67565b005b3480156103a657600080fd5b50610254610d69565b3480156103bb57600080fd5b50610254610d72565b3480156103d057600080fd5b50610254610e26565b3480156103e557600080fd5b506103ee610e35565b604080517fffffffff000000000000000000000000000000000000000000000000000000009092168252519081900360200190f35b34801561042f57600080fd5b50610254610ed8565b34801561044457600080fd5b50610281600435610f4b565b34801561045c57600080fd5b50610254600435610f5c565b34801561047457600080fd5b506103986024600480358281019290820135918135918201910135610fd7565b3480156104a057600080fd5b506103986004356024351515611432565b3480156104bd57600080fd5b50610254611511565b3480156104d257600080fd5b50610398600160a060020a0360043581169060243516611584565b3480156104f957600080fd5b5061025460043561173a565b34801561051157600080fd5b5061033f6004356117bd565b34801561052957600080fd5b50610398600435611841565b34801561054157600080fd5b506102546119b3565b34801561055657600080fd5b5061033f600435611a26565b34801561056e57600080fd5b50610254611a70565b34801561058357600080fd5b50610254611ae3565b34801561059857600080fd5b5061030b611b5b565b3480156105ad57600080fd5b5061033f600435611bcf565b3480156105c557600080fd5b50610398600435602435604435606435611c53565b3480156105e657600080fd5b5061030b611cf5565b3480156105fb57600080fd5b50610398600160a060020a0360043516602435604435611d69565b34801561062257600080fd5b50610254612059565b34801561063757600080fd5b506106406120cc565b6040805167ffffffffffffffff9485168152928416602084015292168183015290519081900360600190f35b34801561067857600080fd5b506102546120d6565b34801561068d57600080fd5b50610398600435612149565b3480156106a557600080fd5b5061033f60048035600160a060020a0316906024803591604435918201910135612240565b3480156106d657600080fd5b506103986004356122ab565b3480156106ee57600080fd5b506103986004356123ba565b34801561070657600080fd5b506103986004356124bc565b34801561071e57600080fd5b506102546004356125cb565b34801561073657600080fd5b50610398600435612608565b34801561074e57600080fd5b5061030b6126a9565b34801561076357600080fd5b506102546126e9565b34801561077857600080fd5b5061033f600160a060020a036004358116906024359060443590606435906084359060a4359060c43581169060e43590610104359061012435166101443561275c565b3480156107c757600080fd5b5061033f600435612f71565b3480156107df57600080fd5b50610398600435612fbc565b3480156107f757600080fd5b50610398600160a060020a036004351661305d565b34801561081857600080fd5b5061025461309a565b34801561082d57600080fd5b5061025461310d565b34801561084257600080fd5b5061033f600435613180565b60008060008360405160200180807f6e756d4d657373616765735369676e656400000000000000000000000000000081525060110182600019166000191681526020019150506040516020818303038152906040526040518082805190602001908083835b602083106108d25780518252601f1990920191602091820191016108b3565b51815160209384036101000a600019018019909216911617905260408051929094018290039091208652850195909552929092016000205495945050505050565b604080516020808201859052818301849052825180830384018152606092830193849052805192936000939192909182918401908083835b6020831061096a5780518252601f19909201916020918201910161094b565b6001836020036101000a038019825116818451168082178552505050505050905001915050604051809103902090506109a2816131a8565b91505b5092915050565b60006002600060405160200180807f6572633230746f6b656e00000000000000000000000000000000000000000000815250600a0190506040516020818303038152906040526040518082805190602001908083835b60208310610a215780518252601f199092019160209182019101610a02565b51815160209384036101000a6000190180199092169116179052604080519290940182900390912086528501959095529290920160002054600160a060020a031693505050505b90565b6000600460008360405160200180807f6669786564417373657473000000000000000000000000000000000000000000815250600b0182600019166000191681526020019150506040516020818303038152906040526040518082805190602001908083835b60208310610af05780518252601f199092019160209182019101610ad1565b51815160209384036101000a600019018019909216911617905260408051929094018290039091208652850195909552929092016000205460ff1695945050505050565b60008060008360405160200180807f746f74616c5370656e7450657244617900000000000000000000000000000000815250601001828152602001915050604051602081830303815290604052604051808280519060200190808383602083106108d25780518252601f1990920191602091820191016108b3565b60006004600060405160200180807f6973496e697469616c697a656400000000000000000000000000000000000000815250600d0190506040516020818303038152906040526040518082805190602001908083835b60208310610c245780518252601f199092019160209182019101610c05565b51815160209384036101000a600019018019909216911617905260408051929094018290039091208652850195909552929092016000205460ff16949350505050565b610c6f611b5b565b600160a060020a03163314610c8357600080fd5b8060008060405160200180807f657865637574696f6e4461696c794c696d69740000000000000000000000000081525060130190506040516020818303038152906040526040518082805190602001908083835b60208310610cf65780518252601f199092019160209182019101610cd7565b51815160001960209485036101000a019081169019919091161790526040805194909201849003909320865285830196909652509284016000209490945550815184815291517f9bebf928b90863f24cc31f726a3a7545efd409f1dcf552301b1ee3710da70d3b9350918290030190a150565b62015180420490565b600080600060405160200180807f7265717569726564426c6f636b436f6e6669726d6174696f6e73000000000000815250601a0190506040516020818303038152906040526040518082805190602001908083835b60208310610de65780518252601f199092019160209182019101610dc7565b51815160209384036101000a6000190180199092169116179052604080519290940182900390912086528501959095529290920160002054949350505050565b6000610e30613310565b905090565b600060405160200180807f6572633637372d746f2d65726332302d636f726500000000000000000000000081525060140190506040516020818303038152906040526040518082805190602001908083835b60208310610ea65780518252601f199092019160209182019101610e87565b6001836020036101000a0380198251168184511680821785525050505050509050019150506040518091039020905090565b600080600060405160200180807f657865637574696f6e4461696c794c696d697400000000000000000000000000815250601301905060405160208183030381529060405260405180828051906020019080838360208310610de65780518252601f199092019160209182019101610dc7565b6060610f5682613315565b92915050565b60008060008360405160200180807f746f74616c457865637574656450657244617900000000000000000000000000815250601301828152602001915050604051602081830303815290604052604051808280519060200190808383602083106108d25780518252601f1990920191602091820191016108b3565b6000806000806000610fe7611cf5565b600160a060020a031663facd743b336040518263ffffffff1660e060020a0281526004018082600160a060020a0316600160a060020a03168152602001915050602060405180830381600087803b15801561104157600080fd5b505af1158015611055573d6000803e3d6000fd5b505050506040513d602081101561106b57600080fd5b5051151561107857600080fd5b6110b187878080601f01602080910402602001604051908101604052809392919081815260200183838082843750613399945050505050565b15156110bc57600080fd5b61112389898080601f0160208091040260200160405190810160405280939291908181526020018383808284375050604080516020601f8f018190048102820181019092528d815294508d93508c92508291508401838280828437506133ad945050505050565b600160a060020a0316331461113757600080fd5b8686604051602001808383808284378201915050925050506040516020818303038152906040526040518082805190602001908083835b6020831061118d5780518252601f19909201916020918201910161116e565b51815160209384036101000a600019018019909216911617905260408051929094018290038220336c0100000000000000000000000002838301526034808401829052855180850390910181526054909301948590528251909b509195509293508392850191508083835b602083106112175780518252601f1990920191602091820191016111f8565b6001836020036101000a0380198251168184511680821785525050505050509050019150506040518091039020935061124f8561084e565b925061125a83613180565b1561126457600080fd5b6001928301928311156112895761127a84611bcf565b1561128457600080fd5b6112c3565b6112c38588888080601f0160208091040260200160405190810160405280939291908181526020018383808284375061346d945050505050565b6112ce846001613544565b604080516020808201889052600019860182840152825180830384018152606090920192839052815191929182918401908083835b602083106113225780518252601f199092019160209182019101611303565b51815160209384036101000a600019018019909216911617905260408051929094018290038220601f8f018290048202830182019094528d82529296506113839450869350918d91508c908190840183828082843750613616945050505050565b61138d8584613699565b60408051868152905133917fbf06885f40778f5ccfb64497d3f92ce568ddaedb7e2fb4487f72690418cf8e4c919081900360200190a26113cb611ae3565b9050808310611427576113e6856113e18561375e565b613699565b604080513381526020810187905280820183905290517f415557404d88a0c0b8e3b16967cafffc511213fd9c465c16832ee17ed57d72379181900360600190a15b505050505050505050565b60008061143d6126a9565b600160a060020a0316331461145157600080fd5b61145a84610a6b565b1561146457600080fd5b61146d84613783565b9092509050600160a060020a0382161580159061148a5750600081115b151561149557600080fd5b6114b56114b0826114a46120d6565b9063ffffffff61390a16565b61391c565b82156115005760408051600160a060020a03841681526020810183905281517f127650bcfb0ba017401abe4931453a405140a8fd36fece67bae2db174d3fdd63929181900390910190a15b61150b84600161398e565b50505050565b600080600060405160200180807f6461696c794c696d697400000000000000000000000000000000000000000000815250600a01905060405160208183030381529060405260405180828051906020019080838360208310610de65780518252601f199092019160209182019101610dc7565b60008061158f6126a9565b600160a060020a031633146115a357600080fd5b600160a060020a03831615156115b857600080fd5b600160a060020a038416151561160457604051600160a060020a03841690303180156108fc02916000818181858888f193505050501580156115fe573d6000803e3d6000fd5b5061150b565b604080517f70a082310000000000000000000000000000000000000000000000000000000081523060048201529051859350600160a060020a038416916370a082319160248083019260209291908290030181600087803b15801561166857600080fd5b505af115801561167c573d6000803e3d6000fd5b505050506040513d602081101561169257600080fd5b5051604080517fa9059cbb000000000000000000000000000000000000000000000000000000008152600160a060020a0386811660048301526024820184905291519293509084169163a9059cbb916044808201926020929091908290030181600087803b15801561170357600080fd5b505af1158015611717573d6000803e3d6000fd5b505050506040513d602081101561172d57600080fd5b5051151561150b57600080fd5b60008060008360405160200180807f6e756d41666669726d6174696f6e735369676e656400000000000000000000008152506015018260001916600019168152602001915050604051602081830303815290604052604051808280519060200190808383602083106108d25780518252601f1990920191602091820191016108b3565b6000600460008360405160200180807f61666669726d6174696f6e735369676e65640000000000000000000000000000815250601201826000191660001916815260200191505060405160208183030381529060405260405180828051906020019080838360208310610af05780518252601f199092019160209182019101610ad1565b611849611b5b565b600160a060020a0316331461185d57600080fd5b61271081106118cd57604080517f08c379a000000000000000000000000000000000000000000000000000000000815260206004820152601360248201527f496e76616c6964206665652070657263656e7400000000000000000000000000604482015290519081900360640190fd5b8060008060405160200180807f66656550657263656e7400000000000000000000000000000000000000000000815250600a0190506040516020818303038152906040526040518082805190602001908083835b602083106119405780518252601f199092019160209182019101611921565b51815160001960209485036101000a019081169019919091161790526040805194909201849003909320865285830196909652509284016000209490945550815184815291517f91955c12515f4eb8f1ff79df82d1933ff11b6d3b9a3019c6568840616ec36a749350918290030190a150565b600080600060405160200180807f66656550657263656e7400000000000000000000000000000000000000000000815250600a01905060405160208183030381529060405260405180828051906020019080838360208310610de65780518252601f199092019160209182019101610dc7565b600080611a4983611a3d611a38610d69565b610f5c565b9063ffffffff613a1116565b905080611a54610ed8565b10158015611a695750611a65611a70565b8311155b9392505050565b600080600060405160200180807f657865637574696f6e4d61785065725478000000000000000000000000000000815250601101905060405160208183030381529060405260405180828051906020019080838360208310610de65780518252601f199092019160209182019101610dc7565b6000611aed611cf5565b600160a060020a0316638d0680436040518163ffffffff1660e060020a028152600401602060405180830381600087803b158015611b2a57600080fd5b505af1158015611b3e573d6000803e3d6000fd5b505050506040513d6020811015611b5457600080fd5b5051905090565b60006002600060405160200180807f6f776e6572000000000000000000000000000000000000000000000000000000815250600501905060405160208183030381529060405260405180828051906020019080838360208310610a215780518252601f199092019160209182019101610a02565b6000600460008360405160200180807f6d657373616765735369676e6564000000000000000000000000000000000000815250600e01826000191660001916815260200191505060405160208183030381529060405260405180828051906020019080838360208310610af05780518252601f199092019160209182019101610ad1565b611c5b611b5b565b600160a060020a03163314611c6f57600080fd5b611c776109ac565b600160a060020a03166398a86954858585856040518563ffffffff1660e060020a02815260040180858152602001848152602001838152602001828152602001945050505050600060405180830381600087803b158015611cd757600080fd5b505af1158015611ceb573d6000803e3d6000fd5b5050505050505050565b60006002600060405160200180807f76616c696461746f72436f6e7472616374000000000000000000000000000000815250601101905060405160208183030381529060405260405180828051906020019080838360208310610a215780518252601f199092019160209182019101610a02565b6000806000611d76611cf5565b600160a060020a031663facd743b336040518263ffffffff1660e060020a0281526004018082600160a060020a0316600160a060020a03168152602001915050602060405180830381600087803b158015611dd057600080fd5b505af1158015611de4573d6000803e3d6000fd5b505050506040513d6020811015611dfa57600080fd5b50511515611e0757600080fd5b611e1085613a20565b1561204657604080516c01000000000000000000000000600160a060020a0389160260208083019190915260348201889052605480830188905283518084039091018152607490920192839052815191929182918401908083835b60208310611e8a5780518252601f199092019160209182019101611e6b565b51815160209384036101000a600019018019909216911617905260408051929094018290038220336c01000000000000000000000000028383015260348084018290528551808503909101815260549093019485905282519099509195509293508392850191508083835b60208310611f145780518252601f199092019160209182019101611ef5565b6001836020036101000a03801982511681845116808217855250505050505090500191505060405180910390209150611f4c826117bd565b15611f5657600080fd5b611f61826001613a2b565b611f6a8361173a565b9050611f7581613180565b15611f7f57600080fd5b600101611f8c8382613aae565b60408051858152905133917f5df9cc3eb93d8a9a481857a3b70a8ca966e6b80b25cf0ee2cce180ec5afa80a1919081900360200190a2611fca611ae3565b811061204157611fe283611fdd8361375e565b613aae565b611fec8686613b30565b1515611ff757600080fd5b60408051600160a060020a03881681526020810187905280820186905290517f6fc115a803b8703117d9a3956c5a15401cb42401f91630f015eb6b043fa762539181900360600190a15b612051565b612051868686613f35565b505050505050565b600080600060405160200180807f6465706c6f7965644174426c6f636b0000000000000000000000000000000000815250600f01905060405160208183030381529060405260405180828051906020019080838360208310610de65780518252601f199092019160209182019101610dc7565b6002806000909192565b600080600060405160200180807f6f75744f664c696d6974416d6f756e7400000000000000000000000000000000815250601001905060405160208183030381529060405260405180828051906020019080838360208310610de65780518252601f199092019160209182019101610dc7565b612151611b5b565b600160a060020a0316331461216557600080fd5b61216d611511565b81108015612181575061217e61309a565b81105b151561218c57600080fd5b8060008060405160200180807f6d696e506572547800000000000000000000000000000000000000000000000081525060080190506040516020818303038152906040526040518082805190602001908083835b602083106121ff5780518252601f1990920191602091820191016121e0565b51815160209384036101000a600019018019909216911617905260408051929094018290039091208652850195909552929092016000209390935550505050565b600061224a6109ac565b600160a060020a0316331461225e57600080fd5b61226784612f71565b151561227257600080fd5b61229661227d610d69565b61229186611a3d61228c610d69565b610b34565b613fd0565b6122a0858561404a565b506001949350505050565b6122b3611b5b565b600160a060020a031633146122c757600080fd5b600081116122d457600080fd5b8060008060405160200180807f7265717569726564426c6f636b436f6e6669726d6174696f6e73000000000000815250601a0190506040516020818303038152906040526040518082805190602001908083835b602083106123475780518252601f199092019160209182019101612328565b51815160001960209485036101000a019081169019919091161790526040805194909201849003909320865285830196909652509284016000209490945550815184815291517f4fb76205cd57c896b21511d2114137d8e901b4ccd659e1a0f97d6306795264fb9350918290030190a150565b6123c2611b5b565b600160a060020a031633146123d657600080fd5b8060008060405160200180807f6461696c794c696d697400000000000000000000000000000000000000000000815250600a0190506040516020818303038152906040526040518082805190602001908083835b602083106124495780518252601f19909201916020918201910161242a565b51815160001960209485036101000a019081169019919091161790526040805194909201849003909320865285830196909652509284016000209490945550815184815291517fad4123ae17c414d9c6d2fec478b402e6b01856cc250fd01fbfd252fda0089d3c9350918290030190a150565b6124c4611b5b565b600160a060020a031633146124d857600080fd5b600081116124e557600080fd5b8060008060405160200180807f676173507269636500000000000000000000000000000000000000000000000081525060080190506040516020818303038152906040526040518082805190602001908083835b602083106125585780518252601f199092019160209182019101612539565b51815160001960209485036101000a019081169019919091161790526040805194909201849003909320865285830196909652509284016000209490945550815184815291517f52264b89e0fceafb26e79fd49ef8a366eb6297483bf4035b027f0c99a7ad512e9350918290030190a150565b6000612710611a696125fb826125ef6125e26119b3565b879063ffffffff61409216565b9063ffffffff6140bd16565b849063ffffffff61390a16565b612610611b5b565b600160a060020a0316331461262457600080fd5b61262c611511565b811061263757600080fd5b8060008060405160200180807f6d617850657254780000000000000000000000000000000000000000000000008152506008019050604051602081830303815290604052604051808280519060200190808383602083106121ff5780518252601f1990920191602091820191016121e0565b600030600160a060020a031663025313a26040518163ffffffff1660e060020a028152600401602060405180830381600087803b158015611b2a57600080fd5b600080600060405160200180807f6d696e5065725478000000000000000000000000000000000000000000000000815250600801905060405160208183030381529060405260405180828051906020019080838360208310610de65780518252601f199092019160209182019101610dc7565b6000612766610baf565b1561277057600080fd5b600160a060020a038c161580159061278c575061278c8c6140d4565b151561279757600080fd5b600088116127a457600080fd5b600087116127b157600080fd5b6000891180156127c05750888a115b80156127cb5750898b115b15156127d657600080fd5b8484106127e257600080fd5b600160a060020a03831615156127f757600080fd5b612710821061286757604080517f08c379a000000000000000000000000000000000000000000000000000000000815260206004820152601360248201527f496e76616c6964206665652070657263656e7400000000000000000000000000604482015290519081900360640190fd5b8b6002600060405160200180807f76616c696461746f72436f6e747261637400000000000000000000000000000081525060110190506040516020818303038152906040526040518082805190602001908083835b602083106128db5780518252601f1990920191602091820191016128bc565b51815160209384036101000a60001901801990921691161790526040805192909401829003909120865285810196909652509283016000908120805473ffffffffffffffffffffffffffffffffffffffff1916600160a060020a039790971696909617909555505080517f6465706c6f7965644174426c6f636b0000000000000000000000000000000000818401528151600f818303018152602f90910191829052805143949384939182918401908083835b602083106129ad5780518252601f19909201916020918201910161298e565b51815160209384036101000a6000190180199092169116179052604080519290940182900390912086528581019690965250928301600090812095909555505080517f6461696c794c696d697400000000000000000000000000000000000000000000818401528151600a818303018152602a9091019182905280518f949384939182918401908083835b60208310612a575780518252601f199092019160209182019101612a38565b51815160209384036101000a6000190180199092169116179052604080519290940182900390912086528581019690965250928301600090812095909555505080517f6d61785065725478000000000000000000000000000000000000000000000000818401528151600881830301815260289091019182905280518e949384939182918401908083835b60208310612b015780518252601f199092019160209182019101612ae2565b51815160209384036101000a6000190180199092169116179052604080519290940182900390912086528581019690965250928301600090812095909555505080517f6d696e5065725478000000000000000000000000000000000000000000000000818401528151600881830301815260289091019182905280518d949384939182918401908083835b60208310612bab5780518252601f199092019160209182019101612b8c565b51815160209384036101000a6000190180199092169116179052604080519290940182900390912086528581019690965250928301600090812095909555505080517f6761735072696365000000000000000000000000000000000000000000000000818401528151600881830301815260289091019182905280518c949384939182918401908083835b60208310612c555780518252601f199092019160209182019101612c36565b51815160209384036101000a6000190180199092169116179052604080519290940182900390912086528581019690965250928301600090812095909555505080517f7265717569726564426c6f636b436f6e6669726d6174696f6e73000000000000818401528151601a818303018152603a9091019182905280518b949384939182918401908083835b60208310612cff5780518252601f199092019160209182019101612ce0565b51815160209384036101000a6000190180199092169116179052604080519290940182900390912086528581019690965250928301600090812095909555505080517f657865637574696f6e4461696c794c696d6974000000000000000000000000008184015281516013818303018152603390910191829052805189949384939182918401908083835b60208310612da95780518252601f199092019160209182019101612d8a565b51815160209384036101000a6000190180199092169116179052604080519290940182900390912086528581019690965250928301600090812095909555505080517f657865637574696f6e4d617850657254780000000000000000000000000000008184015281516011818303018152603190910191829052805188949384939182918401908083835b60208310612e535780518252601f199092019160209182019101612e34565b51815160209384036101000a6000190180199092169116179052604080519290940182900390912086528581019690965250928301600090812095909555505080517f66656550657263656e7400000000000000000000000000000000000000000000818401528151600a818303018152602a90910191829052805186949384939182918401908083835b60208310612efd5780518252601f199092019160209182019101612ede565b51815160209384036101000a600019018019909216911617905260408051929094018290039091208652850195909552929092016000209390935550612f4691508490506140dc565b612f506001614204565b612f59866142c5565b612f61610baf565b9c9b505050505050505050505050565b600080612f8383611a3d61228c610d69565b905080612f8e611511565b10158015612fa35750612f9f61309a565b8311155b8015611a695750612fb26126e9565b9092101592915050565b612fc4611b5b565b600160a060020a03163314612fd857600080fd5b612fe0610ed8565b8110612feb57600080fd5b8060008060405160200180807f657865637574696f6e4d617850657254780000000000000000000000000000008152506011019050604051602081830303815290604052604051808280519060200190808383602083106121ff5780518252601f1990920191602091820191016121e0565b613065611b5b565b600160a060020a0316331461307957600080fd5b600160a060020a038116151561308e57600080fd5b613097816140dc565b50565b600080600060405160200180807f6d61785065725478000000000000000000000000000000000000000000000000815250600801905060405160208183030381529060405260405180828051906020019080838360208310610de65780518252601f199092019160209182019101610dc7565b600080600060405160200180807f6761735072696365000000000000000000000000000000000000000000000000815250600801905060405160208183030381529060405260405180828051906020019080838360208310610de65780518252601f199092019160209182019101610dc7565b7f80000000000000000000000000000000000000000000000000000000000000009081161490565b6060600360008360405160200180807f7369676e61747572657300000000000000000000000000000000000000000000815250600a0182600019166000191681526020019150506040516020818303038152906040526040518082805190602001908083835b6020831061322d5780518252601f19909201916020918201910161320e565b6001836020036101000a0380198251168184511680821785525050505050509050019150506040518091039020600019166000191681526020019081526020016000208054600181600116156101000203166002900480601f0160208091040260200160405190810160405280929190818152602001828054600181600116156101000203166002900480156133045780601f106132d957610100808354040283529160200191613304565b820191906000526020600020905b8154815290600101906020018083116132e757829003601f168201915b50505050509050919050565b606890565b6060600360008360405160200180807f6d6573736167657300000000000000000000000000000000000000000000000081525060080182600019166000191681526020019150506040516020818303038152906040526040518082805190602001908083836020831061322d5780518252601f19909201916020918201910161320e565b60006133a3613310565b8251149050919050565b600080600080855160411415156133c357600080fd5b50505060208301516040840151606085015160016133e08661435f565b60408051600080825260208083018085529490945260ff7f0100000000000000000000000000000000000000000000000000000000000000870416828401526060820188905260808201879052915160a08083019493601f198301938390039091019190865af1158015613458573d6000803e3d6000fd5b5050604051601f190151979650505050505050565b80600360008460405160200180807f6d6573736167657300000000000000000000000000000000000000000000000081525060080182600019166000191681526020019150506040516020818303038152906040526040518082805190602001908083835b602083106134f15780518252601f1990920191602091820191016134d2565b51815160001960209485036101000a0190811690199190911617905260408051949092018490039093208652858301969096525092909301600020845161353f95919450920191905061473f565b505050565b80600460008460405160200180807f6d657373616765735369676e6564000000000000000000000000000000000000815250600e0182600019166000191681526020019150506040516020818303038152906040526040518082805190602001908083835b602083106135c85780518252601f1990920191602091820191016135a9565b51815160209384036101000a60001901801990921691161790526040805192909401829003909120865285019590955292909201600020805460ff1916941515949094179093555050505050565b80600360008460405160200180807f7369676e61747572657300000000000000000000000000000000000000000000815250600a018260001916600019168152602001915050604051602081830303815290604052604051808280519060200190808383602083106134f15780518252601f1990920191602091820191016134d2565b806000808460405160200180807f6e756d4d657373616765735369676e656400000000000000000000000000000081525060110182600019166000191681526020019150506040516020818303038152906040526040518082805190602001908083835b6020831061371c5780518252601f1990920191602091820191016136fd565b51815160209384036101000a60001901801990921691161790526040805192909401829003909120865285019590955292909201600020939093555050505050565b7f80000000000000000000000000000000000000000000000000000000000000001790565b600080600260008460405160200180807f74784f75744f664c696d6974526563697069656e74000000000000000000000081525060150182600019166000191681526020019150506040516020818303038152906040526040518082805190602001908083835b602083106138095780518252601f1990920191602091820191016137ea565b51815160209384036101000a600019018019909216911617905260408051929094018290039091208652858101969096525092830160009081205484517f74784f75744f664c696d697456616c75650000000000000000000000000000008188015260318082018b9052865180830390910181526051909101958690528051600160a060020a0390921698509195869592945091925082918401908083835b602083106138c75780518252601f1990920191602091820191016138a8565b51815160209384036101000a6000190180199092169116179052604080519290940182900390912086528501959095529290920160002054949694955050505050565b60008282111561391657fe5b50900390565b8060008060405160200180807f6f75744f664c696d6974416d6f756e74000000000000000000000000000000008152506010019050604051602081830303815290604052604051808280519060200190808383602083106121ff5780518252601f1990920191602091820191016121e0565b80600460008460405160200180807f6669786564417373657473000000000000000000000000000000000000000000815250600b018260001916600019168152602001915050604051602081830303815290604052604051808280519060200190808383602083106135c85780518252601f1990920191602091820191016135a9565b600082820183811015611a6957fe5b6000610f5682611a26565b80600460008460405160200180807f61666669726d6174696f6e735369676e656400000000000000000000000000008152506012018260001916600019168152602001915050604051602081830303815290604052604051808280519060200190808383602083106135c85780518252601f1990920191602091820191016135a9565b806000808460405160200180807f6e756d41666669726d6174696f6e735369676e6564000000000000000000000081525060150182600019166000191681526020019150506040516020818303038152906040526040518082805190602001908083836020831061371c5780518252601f1990920191602091820191016136fd565b6000806060600080600080613b5a613b46610d69565b613b558a611a3d611a38610d69565b614524565b613b626119b3565b1515613c0557613b706109ac565b600160a060020a031663a9059cbb8a8a6040518363ffffffff1660e060020a0281526004018083600160a060020a0316600160a060020a0316815260200182815260200192505050602060405180830381600087803b158015613bd257600080fd5b505af1158015613be6573d6000803e3d6000fd5b505050506040513d6020811015613bfc57600080fd5b50519650613f29565b613c0e886125cb565b9550613c18611cf5565b600160a060020a031663bb8ac08f6040518163ffffffff1660e060020a028152600401600060405180830381600087803b158015613c5557600080fd5b505af1158015613c69573d6000803e3d6000fd5b505050506040513d6000823e601f3d908101601f191682016040526020811015613c9257600080fd5b810190808051640100000000811115613caa57600080fd5b82016020810184811115613cbd57600080fd5b8151856020820283011164010000000082111715613cda57600080fd5b50909850613cf593508b92508991505063ffffffff61390a16565b9350613d0b8551856140bd90919063ffffffff16565b9250600091505b6001855103821015613dd657613d266109ac565b600160a060020a031663a9059cbb8684815181101515613d4257fe5b90602001906020020151856040518363ffffffff1660e060020a0281526004018083600160a060020a0316600160a060020a0316815260200182815260200192505050602060405180830381600087803b158015613d9f57600080fd5b505af1158015613db3573d6000803e3d6000fd5b505050506040513d6020811015613dc957600080fd5b5050600190910190613d12565b613e0b613dfe613df16001885161390a90919063ffffffff16565b859063ffffffff61409216565b859063ffffffff61390a16565b9050613e156109ac565b600160a060020a031663a9059cbb866001885103815181101515613e3557fe5b90602001906020020151836040518363ffffffff1660e060020a0281526004018083600160a060020a0316600160a060020a0316815260200182815260200192505050602060405180830381600087803b158015613e9257600080fd5b505af1158015613ea6573d6000803e3d6000fd5b505050506040513d6020811015613ebc57600080fd5b50613ec790506109ac565b600160a060020a031663a9059cbb8a886040518363ffffffff1660e060020a0281526004018083600160a060020a0316600160a060020a0316815260200182815260200192505050602060405180830381600087803b158015613bd257600080fd5b50505050505092915050565b600080613f4183613783565b9092509050600160a060020a038216158015613f5b575080155b1515613f6657600080fd5b613f756114b085611a3d6120d6565b613f8085858561459e565b60408051600160a060020a03871681526020810186905280820185905290517f159c0773f543f1e17d5e78327702770947055eb4e871b529bbc78bc9fde456929181900360600190a15050505050565b806000808460405160200180807f746f74616c5370656e74506572446179000000000000000000000000000000008152506010018281526020019150506040516020818303038152906040526040518082805190602001908083836020831061371c5780518252601f1990920191602091820191016136fd565b60408051600160a060020a03841681526020810183905281517f127650bcfb0ba017401abe4931453a405140a8fd36fece67bae2db174d3fdd63929181900390910190a15050565b6000808315156140a557600091506109a5565b508282028284828115156140b557fe5b0414611a6957fe5b60008082848115156140cb57fe5b04949350505050565b6000903b1190565b7f8be0079c531659141344cd1fd0a4f28419497f9722a3daafe3b4186f6b6457e0614105611b5b565b60408051600160a060020a03928316815291841660208301528051918290030190a1806002600060405160200180807f6f776e657200000000000000000000000000000000000000000000000000000081525060050190506040516020818303038152906040526040518082805190602001908083835b6020831061419b5780518252601f19909201916020918201910161417c565b51815160209384036101000a60001901801990921691161790526040805192909401829003909120865285019590955292909201600020805473ffffffffffffffffffffffffffffffffffffffff1916600160a060020a03959095169490941790935550505050565b806004600060405160200180807f6973496e697469616c697a656400000000000000000000000000000000000000815250600d0190506040516020818303038152906040526040518082805190602001908083835b602083106142785780518252601f199092019160209182019101614259565b51815160209384036101000a60001901801990921691161790526040805192909401829003909120865285019590955292909201600020805460ff19169415159490941790935550505050565b600160a060020a038116158015906142e157506142e1816140d4565b15156142ec57600080fd5b806002600060405160200180807f6572633230746f6b656e00000000000000000000000000000000000000000000815250600a0190506040516020818303038152906040526040518082805190602001908083836020831061419b5780518252601f19909201916020918201910161417c565b604080518082018252601a81527f19457468657265756d205369676e6564204d6573736167653a0a000000000000602080830191825283518085018552600381527f313034000000000000000000000000000000000000000000000000000000000081830152935183516000959385938593899391019182918083835b602083106143fb5780518252601f1990920191602091820191016143dc565b51815160209384036101000a600019018019909216911617905286519190930192860191508083835b602083106144435780518252601f199092019160209182019101614424565b51815160209384036101000a600019018019909216911617905285519190930192850191508083835b6020831061448b5780518252601f19909201916020918201910161446c565b6001836020036101000a03801982511681845116808217855250505050505090500193505050506040516020818303038152906040526040518082805190602001908083835b602083106144f05780518252601f1990920191602091820191016144d1565b5181516020939093036101000a60001901801990911692169190911790526040519201829003909120979650505050505050565b806000808460405160200180807f746f74616c4578656375746564506572446179000000000000000000000000008152506013018281526020019150506040516020818303038152906040526040518082805190602001908083836020831061371c5780518252601f1990920191602091820191016136fd565b82600260008360405160200180807f74784f75744f664c696d6974526563697069656e74000000000000000000000081525060150182600019166000191681526020019150506040516020818303038152906040526040518082805190602001908083835b602083106146225780518252601f199092019160209182019101614603565b51815160209384036101000a60001901801990921691161790526040805192909401829003909120865285810196909652509283016000908120805473ffffffffffffffffffffffffffffffffffffffff1916600160a060020a039790971696909617909555505080517f74784f75744f664c696d697456616c756500000000000000000000000000000081840152603180820186905282518083039091018152605190910191829052805186949384939182918401908083835b602083106146fc5780518252601f1990920191602091820191016146dd565b51815160209384036101000a6000190180199092169116179052604080519290940182900390912086528501959095529290920160002093909355505050505050565b828054600181600116156101000203166002900490600052602060002090601f016020900481019282601f1061478057805160ff19168380011785556147ad565b828001600101855582156147ad579182015b828111156147ad578251825591602001919060010190614792565b506147b99291506147bd565b5090565b610a6891905b808211156147b957600081556001016147c35600a165627a7a72305820d9e4176fc00d0aa8940f7b45b0d09fe475fc4590c100e6a690886eb0883bc29a0029",
  "source": "pragma solidity 0.4.24;\n\nimport \"../../libraries/SafeMath.sol\";\nimport \"../../libraries/Message.sol\";\nimport \"../BasicBridge.sol\";\nimport \"../../upgradeability/EternalStorage.sol\";\nimport \"../BasicHomeBridge.sol\";\nimport \"../ERC20Bridge.sol\";\nimport \"../OverdrawManagement.sol\";\nimport \"../FeeManager.sol\";\n\ncontract ERC20Receiver {\n  function onTokenTransfer(address _from, uint _value, bytes _data) external returns(bool);\n}\n\ncontract HomeBridgeErc677ToErc20 is ERC20Receiver, EternalStorage, BasicBridge, BasicHomeBridge, ERC20Bridge, OverdrawManagement, FeeManager {\n    event AmountLimitExceeded(address recipient, uint256 value, bytes32 transactionHash);\n\n    function initialize (\n        address _validatorContract,\n        uint256 _dailyLimit,\n        uint256 _maxPerTx,\n        uint256 _minPerTx,\n        uint256 _homeGasPrice,\n        uint256 _requiredBlockConfirmations,\n        address _erc20token,\n        uint256 _foreignDailyLimit,\n        uint256 _foreignMaxPerTx,\n        address _owner,\n        uint256 _feePercent\n    ) public\n      returns(bool)\n    {\n        require(!isInitialized());\n        require(_validatorContract != address(0) && isContract(_validatorContract));\n        require(_homeGasPrice > 0);\n        require(_requiredBlockConfirmations > 0);\n        require(_minPerTx > 0 && _maxPerTx > _minPerTx && _dailyLimit > _maxPerTx);\n        require(_foreignMaxPerTx < _foreignDailyLimit);\n        require(_owner != address(0));\n        require(_feePercent < 10000, \"Invalid fee percent\");\n        addressStorage[keccak256(abi.encodePacked(\"validatorContract\"))] = _validatorContract;\n        uintStorage[keccak256(abi.encodePacked(\"deployedAtBlock\"))] = block.number;\n        uintStorage[keccak256(abi.encodePacked(\"dailyLimit\"))] = _dailyLimit;\n        uintStorage[keccak256(abi.encodePacked(\"maxPerTx\"))] = _maxPerTx;\n        uintStorage[keccak256(abi.encodePacked(\"minPerTx\"))] = _minPerTx;\n        uintStorage[keccak256(abi.encodePacked(\"gasPrice\"))] = _homeGasPrice;\n        uintStorage[keccak256(abi.encodePacked(\"requiredBlockConfirmations\"))] = _requiredBlockConfirmations;\n        uintStorage[keccak256(abi.encodePacked(\"executionDailyLimit\"))] = _foreignDailyLimit;\n        uintStorage[keccak256(abi.encodePacked(\"executionMaxPerTx\"))] = _foreignMaxPerTx;\n        uintStorage[keccak256(abi.encodePacked(\"feePercent\"))] = _feePercent;\n        setOwner(_owner);\n        setInitialize(true);\n        setErc20token(_erc20token);\n\n        return isInitialized();\n    }\n\n    function getBridgeMode() public pure returns(bytes4 _data) {\n        return bytes4(keccak256(abi.encodePacked(\"erc677-to-erc20-core\")));\n    }\n\n    function () payable public {\n        revert();\n    }\n\n    function onExecuteAffirmation(address _recipient, uint256 _value) internal returns(bool) {\n        setTotalExecutedPerDay(getCurrentDay(), totalExecutedPerDay(getCurrentDay()).add(_value));\n        if (feePercent() == 0) {\n            return erc20token().transfer(_recipient, _value);\n        } else {\n            uint256 userValue = subtractFee(_value);\n            address[] memory validators = validatorContract().validatorsList();\n            uint256 entireValidatorValue = _value.sub(userValue);\n            uint256 particularValidatorValue = entireValidatorValue.div(validators.length);\n            for(uint256 i = 0; i < validators.length - 1; i++) {\n                erc20token().transfer(validators[i], particularValidatorValue);\n            }\n            // to avoid round error we need to calculate the fee value in other way for the last validator\n            uint256 lastValidatorValue = entireValidatorValue.sub(\n                particularValidatorValue.mul(validators.length.sub(1))\n            );\n            erc20token().transfer(validators[validators.length - 1], lastValidatorValue);\n            return erc20token().transfer(_recipient, userValue);\n        }\n\n    }\n\n    function fireEventOnTokenTransfer(address _from, uint256 _value) internal {\n        emit UserRequestForSignature(_from, _value);\n    }\n\n    function affirmationWithinLimits(uint256 _amount) internal view returns(bool) {\n        return withinExecutionLimit(_amount);\n    }\n\n    function onFailedAffirmation(address _recipient, uint256 _value, bytes32 _txHash) internal {\n        address recipient;\n        uint256 value;\n        (recipient, value) = txAboveLimits(_txHash);\n        require(recipient == address(0) && value == 0);\n        setOutOfLimitAmount(outOfLimitAmount().add(_value));\n        setTxAboveLimits(_recipient, _value, _txHash);\n        emit AmountLimitExceeded(_recipient, _value, _txHash);\n    }\n}",
  "sourcePath": "/home/wayne/git/tt/thunder_bridge/contracts/contracts/upgradeable_contracts/erc20_to_erc20/HomeBridgeErc677ToErc20.sol",
  "compiler": {
    "name": "solc",
    "version": "0.4.24+commit.e67f0147.Emscripten.clang"
  },
  "schemaVersion": "3.4.2",
  "updatedAt": "2021-09-17T10:06:44.238Z",
  "devdoc": {
    "methods": {
      "feePercent()": {
        "details": "Returns current fee percent. It has 2 decimal places. e.g. value 1337 has to be interpreted as 13.37%",
        "return": "fee percent."
      },
      "owner()": {
        "details": "Tells the address of the owner",
        "return": "the address of the owner"
      },
      "setFeePercent(uint256)": {
        "details": "Sets current fee percent. It has 2 decimal places. e.g. value 1337 has to be interpreted as 13.37%",
        "params": {
          "_feePercent": "Fee percent."
        }
      },
      "transferOwnership(address)": {
        "details": "Allows the current owner to transfer control of the contract to a newOwner.",
        "params": {
          "newOwner": "the address to transfer ownership to."
        }
      }
    }
  },
  "userdoc": {
    "methods": {}
  }
}