{
  "contractName": "HomeBridgeErc677ToErc677WithFee",
  "abi": [
    {
      "constant": true,
      "inputs": [],
      "name": "depositFixedFee",
      "outputs": [
        {
          "name": "",
          "type": "uint256"
        }
      ],
      "payable": false,
      "stateMutability": "view",
      "type": "function"
    },
    {
      "constant": true,
      "inputs": [
        {
          "name": "_message",
          "type": "bytes32"
        }
      ],
      "name": "numMessagesSigned",
      "outputs": [
        {
          "name": "",
          "type": "uint256"
        }
      ],
      "payable": false,
      "stateMutability": "view",
      "type": "function"
    },
    {
      "constant": true,
      "inputs": [
        {
          "name": "_hash",
          "type": "bytes32"
        },
        {
          "name": "_index",
          "type": "uint256"
        }
      ],
      "name": "signature",
      "outputs": [
        {
          "name": "",
          "type": "bytes"
        }
      ],
      "payable": false,
      "stateMutability": "view",
      "type": "function"
    },
    {
      "constant": true,
      "inputs": [],
      "name": "erc677token",
      "outputs": [
        {
          "name": "",
          "type": "address"
        }
      ],
      "payable": false,
      "stateMutability": "view",
      "type": "function"
    },
    {
      "constant": false,
      "inputs": [
        {
          "name": "_feePercent",
          "type": "uint256"
        }
      ],
      "name": "setDepositFeePercent",
      "outputs": [],
      "payable": false,
      "stateMutability": "nonpayable",
      "type": "function"
    },
    {
      "constant": true,
      "inputs": [
        {
          "name": "_txHash",
          "type": "bytes32"
        }
      ],
      "name": "fixedAssets",
      "outputs": [
        {
          "name": "",
          "type": "bool"
        }
      ],
      "payable": false,
      "stateMutability": "view",
      "type": "function"
    },
    {
      "constant": true,
      "inputs": [
        {
          "name": "_day",
          "type": "uint256"
        }
      ],
      "name": "totalSpentPerDay",
      "outputs": [
        {
          "name": "",
          "type": "uint256"
        }
      ],
      "payable": false,
      "stateMutability": "view",
      "type": "function"
    },
    {
      "constant": true,
      "inputs": [],
      "name": "isInitialized",
      "outputs": [
        {
          "name": "",
          "type": "bool"
        }
      ],
      "payable": false,
      "stateMutability": "view",
      "type": "function"
    },
    {
      "constant": false,
      "inputs": [
        {
          "name": "_fixedFee",
          "type": "uint256"
        }
      ],
      "name": "setWithdrawFixedFee",
      "outputs": [],
      "payable": false,
      "stateMutability": "nonpayable",
      "type": "function"
    },
    {
      "constant": false,
      "inputs": [
        {
          "name": "_dailyLimit",
          "type": "uint256"
        }
      ],
      "name": "setExecutionDailyLimit",
      "outputs": [],
      "payable": false,
      "stateMutability": "nonpayable",
      "type": "function"
    },
    {
      "constant": true,
      "inputs": [],
      "name": "getCurrentDay",
      "outputs": [
        {
          "name": "",
          "type": "uint256"
        }
      ],
      "payable": false,
      "stateMutability": "view",
      "type": "function"
    },
    {
      "constant": true,
      "inputs": [],
      "name": "requiredBlockConfirmations",
      "outputs": [
        {
          "name": "",
          "type": "uint256"
        }
      ],
      "payable": false,
      "stateMutability": "view",
      "type": "function"
    },
    {
      "constant": true,
      "inputs": [],
      "name": "requiredMessageLength",
      "outputs": [
        {
          "name": "",
          "type": "uint256"
        }
      ],
      "payable": false,
      "stateMutability": "pure",
      "type": "function"
    },
    {
      "constant": true,
      "inputs": [
        {
          "name": "_value",
          "type": "uint256"
        }
      ],
      "name": "depositFee",
      "outputs": [
        {
          "name": "",
          "type": "uint256"
        }
      ],
      "payable": false,
      "stateMutability": "view",
      "type": "function"
    },
    {
      "constant": true,
      "inputs": [],
      "name": "executionDailyLimit",
      "outputs": [
        {
          "name": "",
          "type": "uint256"
        }
      ],
      "payable": false,
      "stateMutability": "view",
      "type": "function"
    },
    {
      "constant": false,
      "inputs": [
        {
          "name": "_feePercent",
          "type": "uint256"
        }
      ],
      "name": "setWithdrawFeePercent",
      "outputs": [],
      "payable": false,
      "stateMutability": "nonpayable",
      "type": "function"
    },
    {
      "constant": true,
      "inputs": [
        {
          "name": "_hash",
          "type": "bytes32"
        }
      ],
      "name": "message",
      "outputs": [
        {
          "name": "",
          "type": "bytes"
        }
      ],
      "payable": false,
      "stateMutability": "view",
      "type": "function"
    },
    {
      "constant": true,
      "inputs": [],
      "name": "withdrawFeePercent",
      "outputs": [
        {
          "name": "",
          "type": "uint256"
        }
      ],
      "payable": false,
      "stateMutability": "view",
      "type": "function"
    },
    {
      "constant": true,
      "inputs": [
        {
          "name": "_day",
          "type": "uint256"
        }
      ],
      "name": "totalExecutedPerDay",
      "outputs": [
        {
          "name": "",
          "type": "uint256"
        }
      ],
      "payable": false,
      "stateMutability": "view",
      "type": "function"
    },
    {
      "constant": false,
      "inputs": [
        {
          "name": "signature",
          "type": "bytes"
        },
        {
          "name": "message",
          "type": "bytes"
        }
      ],
      "name": "submitSignature",
      "outputs": [],
      "payable": false,
      "stateMutability": "nonpayable",
      "type": "function"
    },
    {
      "constant": false,
      "inputs": [
        {
          "name": "txHash",
          "type": "bytes32"
        },
        {
          "name": "unlockOnForeign",
          "type": "bool"
        }
      ],
      "name": "fixAssetsAboveLimits",
      "outputs": [],
      "payable": false,
      "stateMutability": "nonpayable",
      "type": "function"
    },
    {
      "constant": true,
      "inputs": [],
      "name": "dailyLimit",
      "outputs": [
        {
          "name": "",
          "type": "uint256"
        }
      ],
      "payable": false,
      "stateMutability": "view",
      "type": "function"
    },
    {
      "constant": false,
      "inputs": [
        {
          "name": "_token",
          "type": "address"
        },
        {
          "name": "_to",
          "type": "address"
        }
      ],
      "name": "claimTokens",
      "outputs": [],
      "payable": false,
      "stateMutability": "nonpayable",
      "type": "function"
    },
    {
      "constant": true,
      "inputs": [
        {
          "name": "_withdrawal",
          "type": "bytes32"
        }
      ],
      "name": "numAffirmationsSigned",
      "outputs": [
        {
          "name": "",
          "type": "uint256"
        }
      ],
      "payable": false,
      "stateMutability": "view",
      "type": "function"
    },
    {
      "constant": true,
      "inputs": [
        {
          "name": "_withdrawal",
          "type": "bytes32"
        }
      ],
      "name": "affirmationsSigned",
      "outputs": [
        {
          "name": "",
          "type": "bool"
        }
      ],
      "payable": false,
      "stateMutability": "view",
      "type": "function"
    },
    {
      "constant": true,
      "inputs": [],
      "name": "withdrawFixedFee",
      "outputs": [
        {
          "name": "",
          "type": "uint256"
        }
      ],
      "payable": false,
      "stateMutability": "view",
      "type": "function"
    },
    {
      "constant": true,
      "inputs": [],
      "name": "feePercent",
      "outputs": [
        {
          "name": "",
          "type": "uint256"
        }
      ],
      "payable": false,
      "stateMutability": "view",
      "type": "function"
    },
    {
      "constant": true,
      "inputs": [
        {
          "name": "_amount",
          "type": "uint256"
        }
      ],
      "name": "withinExecutionLimit",
      "outputs": [
        {
          "name": "",
          "type": "bool"
        }
      ],
      "payable": false,
      "stateMutability": "view",
      "type": "function"
    },
    {
      "constant": true,
      "inputs": [],
      "name": "executionMaxPerTx",
      "outputs": [
        {
          "name": "",
          "type": "uint256"
        }
      ],
      "payable": false,
      "stateMutability": "view",
      "type": "function"
    },
    {
      "constant": true,
      "inputs": [],
      "name": "requiredSignatures",
      "outputs": [
        {
          "name": "",
          "type": "uint256"
        }
      ],
      "payable": false,
      "stateMutability": "view",
      "type": "function"
    },
    {
      "constant": true,
      "inputs": [],
      "name": "owner",
      "outputs": [
        {
          "name": "",
          "type": "address"
        }
      ],
      "payable": false,
      "stateMutability": "view",
      "type": "function"
    },
    {
      "constant": true,
      "inputs": [
        {
          "name": "_message",
          "type": "bytes32"
        }
      ],
      "name": "messagesSigned",
      "outputs": [
        {
          "name": "",
          "type": "bool"
        }
      ],
      "payable": false,
      "stateMutability": "view",
      "type": "function"
    },
    {
      "constant": false,
      "inputs": [
        {
          "name": "_periodLength",
          "type": "uint256"
        },
        {
          "name": "_maxPeriodFunds",
          "type": "uint256"
        },
        {
          "name": "_threshold",
          "type": "uint256"
        },
        {
          "name": "_amount",
          "type": "uint256"
        }
      ],
      "name": "setFundingRules",
      "outputs": [],
      "payable": false,
      "stateMutability": "nonpayable",
      "type": "function"
    },
    {
      "constant": true,
      "inputs": [],
      "name": "validatorContract",
      "outputs": [
        {
          "name": "",
          "type": "address"
        }
      ],
      "payable": false,
      "stateMutability": "view",
      "type": "function"
    },
    {
      "constant": false,
      "inputs": [
        {
          "name": "recipient",
          "type": "address"
        },
        {
          "name": "value",
          "type": "uint256"
        },
        {
          "name": "transactionHash",
          "type": "bytes32"
        }
      ],
      "name": "executeAffirmation",
      "outputs": [],
      "payable": false,
      "stateMutability": "nonpayable",
      "type": "function"
    },
    {
      "constant": true,
      "inputs": [],
      "name": "deployedAtBlock",
      "outputs": [
        {
          "name": "",
          "type": "uint256"
        }
      ],
      "payable": false,
      "stateMutability": "view",
      "type": "function"
    },
    {
      "constant": true,
      "inputs": [],
      "name": "getBridgeInterfacesVersion",
      "outputs": [
        {
          "name": "major",
          "type": "uint64"
        },
        {
          "name": "minor",
          "type": "uint64"
        },
        {
          "name": "patch",
          "type": "uint64"
        }
      ],
      "payable": false,
      "stateMutability": "pure",
      "type": "function"
    },
    {
      "constant": true,
      "inputs": [],
      "name": "outOfLimitAmount",
      "outputs": [
        {
          "name": "",
          "type": "uint256"
        }
      ],
      "payable": false,
      "stateMutability": "view",
      "type": "function"
    },
    {
      "constant": false,
      "inputs": [
        {
          "name": "_minPerTx",
          "type": "uint256"
        }
      ],
      "name": "setMinPerTx",
      "outputs": [],
      "payable": false,
      "stateMutability": "nonpayable",
      "type": "function"
    },
    {
      "constant": false,
      "inputs": [
        {
          "name": "_blockConfirmations",
          "type": "uint256"
        }
      ],
      "name": "setRequiredBlockConfirmations",
      "outputs": [],
      "payable": false,
      "stateMutability": "nonpayable",
      "type": "function"
    },
    {
      "constant": false,
      "inputs": [
        {
          "name": "_dailyLimit",
          "type": "uint256"
        }
      ],
      "name": "setDailyLimit",
      "outputs": [],
      "payable": false,
      "stateMutability": "nonpayable",
      "type": "function"
    },
    {
      "constant": true,
      "inputs": [],
      "name": "feeReceiver",
      "outputs": [
        {
          "name": "",
          "type": "address"
        }
      ],
      "payable": false,
      "stateMutability": "view",
      "type": "function"
    },
    {
      "constant": true,
      "inputs": [
        {
          "name": "_value",
          "type": "uint256"
        }
      ],
      "name": "withdrawFee",
      "outputs": [
        {
          "name": "",
          "type": "uint256"
        }
      ],
      "payable": false,
      "stateMutability": "view",
      "type": "function"
    },
    {
      "constant": false,
      "inputs": [
        {
          "name": "_gasPrice",
          "type": "uint256"
        }
      ],
      "name": "setGasPrice",
      "outputs": [],
      "payable": false,
      "stateMutability": "nonpayable",
      "type": "function"
    },
    {
      "constant": true,
      "inputs": [
        {
          "name": "_value",
          "type": "uint256"
        }
      ],
      "name": "subtractFee",
      "outputs": [
        {
          "name": "",
          "type": "uint256"
        }
      ],
      "payable": false,
      "stateMutability": "view",
      "type": "function"
    },
    {
      "constant": false,
      "inputs": [
        {
          "name": "_maxPerTx",
          "type": "uint256"
        }
      ],
      "name": "setMaxPerTx",
      "outputs": [],
      "payable": false,
      "stateMutability": "nonpayable",
      "type": "function"
    },
    {
      "constant": true,
      "inputs": [],
      "name": "depositFeePercent",
      "outputs": [
        {
          "name": "",
          "type": "uint256"
        }
      ],
      "payable": false,
      "stateMutability": "view",
      "type": "function"
    },
    {
      "constant": true,
      "inputs": [],
      "name": "upgradeabilityAdmin",
      "outputs": [
        {
          "name": "",
          "type": "address"
        }
      ],
      "payable": false,
      "stateMutability": "view",
      "type": "function"
    },
    {
      "constant": true,
      "inputs": [],
      "name": "minPerTx",
      "outputs": [
        {
          "name": "",
          "type": "uint256"
        }
      ],
      "payable": false,
      "stateMutability": "view",
      "type": "function"
    },
    {
      "constant": false,
      "inputs": [
        {
          "name": "_validatorContract",
          "type": "address"
        },
        {
          "name": "_dailyLimit",
          "type": "uint256"
        },
        {
          "name": "_maxPerTx",
          "type": "uint256"
        },
        {
          "name": "_minPerTx",
          "type": "uint256"
        },
        {
          "name": "_homeGasPrice",
          "type": "uint256"
        },
        {
          "name": "_requiredBlockConfirmations",
          "type": "uint256"
        },
        {
          "name": "_erc677token",
          "type": "address"
        },
        {
          "name": "_foreignDailyLimit",
          "type": "uint256"
        },
        {
          "name": "_foreignMaxPerTx",
          "type": "uint256"
        },
        {
          "name": "_owner",
          "type": "address"
        },
        {
          "name": "_feePercent",
          "type": "uint256"
        }
      ],
      "name": "initialize",
      "outputs": [
        {
          "name": "",
          "type": "bool"
        }
      ],
      "payable": false,
      "stateMutability": "nonpayable",
      "type": "function"
    },
    {
      "constant": true,
      "inputs": [
        {
          "name": "_amount",
          "type": "uint256"
        }
      ],
      "name": "withinLimit",
      "outputs": [
        {
          "name": "",
          "type": "bool"
        }
      ],
      "payable": false,
      "stateMutability": "view",
      "type": "function"
    },
    {
      "constant": false,
      "inputs": [
        {
          "name": "_receiver",
          "type": "address"
        }
      ],
      "name": "setFeeReceiver",
      "outputs": [],
      "payable": false,
      "stateMutability": "nonpayable",
      "type": "function"
    },
    {
      "constant": false,
      "inputs": [
        {
          "name": "_maxPerTx",
          "type": "uint256"
        }
      ],
      "name": "setExecutionMaxPerTx",
      "outputs": [],
      "payable": false,
      "stateMutability": "nonpayable",
      "type": "function"
    },
    {
      "constant": false,
      "inputs": [
        {
          "name": "newOwner",
          "type": "address"
        }
      ],
      "name": "transferOwnership",
      "outputs": [],
      "payable": false,
      "stateMutability": "nonpayable",
      "type": "function"
    },
    {
      "constant": false,
      "inputs": [
        {
          "name": "_fixedFee",
          "type": "uint256"
        }
      ],
      "name": "setDepositFixedFee",
      "outputs": [],
      "payable": false,
      "stateMutability": "nonpayable",
      "type": "function"
    },
    {
      "constant": true,
      "inputs": [],
      "name": "maxPerTx",
      "outputs": [
        {
          "name": "",
          "type": "uint256"
        }
      ],
      "payable": false,
      "stateMutability": "view",
      "type": "function"
    },
    {
      "constant": true,
      "inputs": [],
      "name": "gasPrice",
      "outputs": [
        {
          "name": "",
          "type": "uint256"
        }
      ],
      "payable": false,
      "stateMutability": "view",
      "type": "function"
    },
    {
      "constant": true,
      "inputs": [
        {
          "name": "_number",
          "type": "uint256"
        }
      ],
      "name": "isAlreadyProcessed",
      "outputs": [
        {
          "name": "",
          "type": "bool"
        }
      ],
      "payable": false,
      "stateMutability": "pure",
      "type": "function"
    },
    {
      "payable": true,
      "stateMutability": "payable",
      "type": "fallback"
    },
    {
      "anonymous": false,
      "inputs": [
        {
          "indexed": false,
          "name": "receiver",
          "type": "address"
        }
      ],
      "name": "FeeReceiverChange",
      "type": "event"
    },
    {
      "anonymous": false,
      "inputs": [
        {
          "indexed": false,
          "name": "fixedFee",
          "type": "uint256"
        }
      ],
      "name": "WithdrawFixedFeeChanged",
      "type": "event"
    },
    {
      "anonymous": false,
      "inputs": [
        {
          "indexed": false,
          "name": "feePercent",
          "type": "uint256"
        }
      ],
      "name": "WithdrawFeePercentChanged",
      "type": "event"
    },
    {
      "anonymous": false,
      "inputs": [
        {
          "indexed": false,
          "name": "fixedFee",
          "type": "uint256"
        }
      ],
      "name": "DepositFixedFeeChanged",
      "type": "event"
    },
    {
      "anonymous": false,
      "inputs": [
        {
          "indexed": false,
          "name": "feePercent",
          "type": "uint256"
        }
      ],
      "name": "DepositFeePercentChanged",
      "type": "event"
    },
    {
      "anonymous": false,
      "inputs": [
        {
          "indexed": false,
          "name": "recipient",
          "type": "address"
        },
        {
          "indexed": false,
          "name": "value",
          "type": "uint256"
        },
        {
          "indexed": false,
          "name": "transactionHash",
          "type": "bytes32"
        }
      ],
      "name": "AmountLimitExceeded",
      "type": "event"
    },
    {
      "anonymous": false,
      "inputs": [
        {
          "indexed": false,
          "name": "newFeePercent",
          "type": "uint256"
        }
      ],
      "name": "FeePercentChanged",
      "type": "event"
    },
    {
      "anonymous": false,
      "inputs": [
        {
          "indexed": false,
          "name": "recipient",
          "type": "address"
        },
        {
          "indexed": false,
          "name": "value",
          "type": "uint256"
        }
      ],
      "name": "UserRequestForSignature",
      "type": "event"
    },
    {
      "anonymous": false,
      "inputs": [
        {
          "indexed": false,
          "name": "recipient",
          "type": "address"
        },
        {
          "indexed": false,
          "name": "value",
          "type": "uint256"
        },
        {
          "indexed": false,
          "name": "transactionHash",
          "type": "bytes32"
        }
      ],
      "name": "AffirmationCompleted",
      "type": "event"
    },
    {
      "anonymous": false,
      "inputs": [
        {
          "indexed": true,
          "name": "signer",
          "type": "address"
        },
        {
          "indexed": false,
          "name": "messageHash",
          "type": "bytes32"
        }
      ],
      "name": "SignedForUserRequest",
      "type": "event"
    },
    {
      "anonymous": false,
      "inputs": [
        {
          "indexed": true,
          "name": "signer",
          "type": "address"
        },
        {
          "indexed": false,
          "name": "transactionHash",
          "type": "bytes32"
        }
      ],
      "name": "SignedForAffirmation",
      "type": "event"
    },
    {
      "anonymous": false,
      "inputs": [
        {
          "indexed": false,
          "name": "authorityResponsibleForRelay",
          "type": "address"
        },
        {
          "indexed": false,
          "name": "messageHash",
          "type": "bytes32"
        },
        {
          "indexed": false,
          "name": "NumberOfCollectedSignatures",
          "type": "uint256"
        }
      ],
      "name": "CollectedSignatures",
      "type": "event"
    },
    {
      "anonymous": false,
      "inputs": [
        {
          "indexed": false,
          "name": "gasPrice",
          "type": "uint256"
        }
      ],
      "name": "GasPriceChanged",
      "type": "event"
    },
    {
      "anonymous": false,
      "inputs": [
        {
          "indexed": false,
          "name": "requiredBlockConfirmations",
          "type": "uint256"
        }
      ],
      "name": "RequiredBlockConfirmationChanged",
      "type": "event"
    },
    {
      "anonymous": false,
      "inputs": [
        {
          "indexed": false,
          "name": "newLimit",
          "type": "uint256"
        }
      ],
      "name": "DailyLimitChanged",
      "type": "event"
    },
    {
      "anonymous": false,
      "inputs": [
        {
          "indexed": false,
          "name": "newLimit",
          "type": "uint256"
        }
      ],
      "name": "ExecutionDailyLimitChanged",
      "type": "event"
    },
    {
      "anonymous": false,
      "inputs": [
        {
          "indexed": false,
          "name": "previousOwner",
          "type": "address"
        },
        {
          "indexed": false,
          "name": "newOwner",
          "type": "address"
        }
      ],
      "name": "OwnershipTransferred",
      "type": "event"
    },
    {
      "constant": true,
      "inputs": [],
      "name": "getBridgeMode",
      "outputs": [
        {
          "name": "_data",
          "type": "bytes4"
        }
      ],
      "payable": false,
      "stateMutability": "pure",
      "type": "function"
    },
    {
      "constant": false,
      "inputs": [
        {
          "name": "_from",
          "type": "address"
        },
        {
          "name": "_value",
          "type": "uint256"
        },
        {
          "name": "_data",
          "type": "bytes"
        }
      ],
      "name": "onTokenTransfer",
      "outputs": [
        {
          "name": "",
          "type": "bool"
        }
      ],
      "payable": false,
      "stateMutability": "nonpayable",
      "type": "function"
    },
    {
      "constant": false,
      "inputs": [
        {
          "name": "data",
          "type": "bytes"
        }
      ],
      "name": "callToken",
      "outputs": [
        {
          "name": "",
          "type": "bool"
        }
      ],
      "payable": true,
      "stateMutability": "payable",
      "type": "function"
    },
    {
      "constant": false,
      "inputs": [
        {
          "name": "_feePercent",
          "type": "uint256"
        }
      ],
      "name": "setFeePercent",
      "outputs": [],
      "payable": false,
      "stateMutability": "nonpayable",
      "type": "function"
    }
  ],
  "bytecode": "0x608060405234801561001057600080fd5b5061520c806100206000396000f3006080604052600436106102c65763ffffffff60e060020a60003504166302ef36c781146102cb5780630cbf0601146102f25780631812d9961461030a57806318d8f9c91461039a5780632052eb77146103cb5780632888bb9c146103e55780632bd0bb0514610411578063392e53cd146104295780633d8a22a41461043e5780633dd95d1b146104565780633e6968b61461046e5780633f0a9f6514610483578063408fef2e14610498578063423c485a146104ad578063437764df146104c557806343b37dd31461050f578063447cb89614610524578063490a32c61461053c578063495ef705146105545780634fb3fef714610569578063630cea8e1461058157806364d188eb146105ad57806367eeba0c146105ca57806369ffa08a146105df5780636ae1a976146106065780637698da241461061e57806379cef02f146106365780637ce3489b1461064b5780637fa9860f146106635780637fd6f15c14610676578063879ce6761461068b5780638aa1949a146106a35780638d068043146106b85780638da5cb5b146106cd5780638f4b4b98146106e257806398a86954146106fa578063994390891461071b578063995b2cff146107305780639a454b99146107575780639cb7595a1461076c578063a0189345146107ad578063a2a6ca27146107c2578063a4c0ed36146107da578063acf5c6891461080b578063b20d30a914610823578063b3f006741461083b578063be35761614610850578063bf1fe42014610868578063c056765614610880578063c6f6f21614610898578063cc1252ae146108b0578063df0ad3de146108c5578063df25f3f0146108da578063df8a50f1146108ef578063ea9f49681461093e578063efdcd97414610956578063f20151e114610977578063f2fde38b1461098f578063f48371c0146109b0578063f968adbe146109c8578063fe173b97146109dd578063ffd19e8c146109f2575b600080fd5b3480156102d757600080fd5b506102e0610a0a565b60408051918252519081900360200190f35b3480156102fe57600080fd5b506102e0600435610abf565b34801561031657600080fd5b50610325600435602435610b84565b6040805160208082528351818301528351919283929083019185019080838360005b8381101561035f578181015183820152602001610347565b50505050905090810190601f16801561038c5780820380516001836020036101000a031916815260200191505b509250505060405180910390f35b3480156103a657600080fd5b506103af610c1d565b60408051600160a060020a039092168252519081900360200190f35b3480156103d757600080fd5b506103e3600435610cdb565b005b3480156103f157600080fd5b506103fd600435610e36565b604080519115158252519081900360200190f35b34801561041d57600080fd5b506102e0600435610eff565b34801561043557600080fd5b506103fd610f7a565b34801561044a57600080fd5b506103e3600435611032565b34801561046257600080fd5b506103e3600435611134565b34801561047a57600080fd5b506102e0611236565b34801561048f57600080fd5b506102e061123f565b3480156104a457600080fd5b506102e06112b2565b3480156104b957600080fd5b506102e06004356112c1565b3480156104d157600080fd5b506104da61131c565b604080517fffffffff000000000000000000000000000000000000000000000000000000009092168252519081900360200190f35b34801561051b57600080fd5b506102e06113bf565b34801561053057600080fd5b506103e3600435611432565b34801561054857600080fd5b5061032560043561158d565b34801561056057600080fd5b506102e061159e565b34801561057557600080fd5b506102e0600435611611565b34801561058d57600080fd5b506103e3602460048035828101929082013591813591820191013561168c565b3480156105b957600080fd5b506103e36004356024351515611ae7565b3480156105d657600080fd5b506102e0611bc6565b3480156105eb57600080fd5b506103e3600160a060020a0360043581169060243516611c39565b34801561061257600080fd5b506102e0600435611def565b34801561062a57600080fd5b506103fd600435611e72565b34801561064257600080fd5b506102e0611ef6565b34801561065757600080fd5b506103e3600435611f69565b6103fd6004803560248101910135611ffe565b34801561068257600080fd5b506102e0612068565b34801561069757600080fd5b506103fd6004356120db565b3480156106af57600080fd5b506102e0612125565b3480156106c457600080fd5b506102e0612198565b3480156106d957600080fd5b506103af612210565b3480156106ee57600080fd5b506103fd600435612284565b34801561070657600080fd5b506103e3600435602435604435606435612308565b34801561072757600080fd5b506103af6123aa565b34801561073c57600080fd5b506103e3600160a060020a036004351660243560443561241e565b34801561076357600080fd5b506102e061270e565b34801561077857600080fd5b50610781612781565b6040805167ffffffffffffffff9485168152928416602084015292168183015290519081900360600190f35b3480156107b957600080fd5b506102e061278b565b3480156107ce57600080fd5b506103e36004356127fe565b3480156107e657600080fd5b506103fd60048035600160a060020a03169060248035916044359182019101356128f5565b34801561081757600080fd5b506103e3600435612b6f565b34801561082f57600080fd5b506103e3600435612c7e565b34801561084757600080fd5b506103af612d80565b34801561085c57600080fd5b506102e0600435612df4565b34801561087457600080fd5b506103e3600435612e18565b34801561088c57600080fd5b506102e0600435612f27565b3480156108a457600080fd5b506103e3600435612f58565b3480156108bc57600080fd5b506102e0612ff9565b3480156108d157600080fd5b506103af61306c565b3480156108e657600080fd5b506102e06130ac565b3480156108fb57600080fd5b506103fd600160a060020a036004358116906024359060443590606435906084359060a4359060c43581169060e43590610104359061012435166101443561311f565b34801561094a57600080fd5b506103fd60043561391d565b34801561096257600080fd5b506103e3600160a060020a0360043516613968565b34801561098357600080fd5b506103e3600435613a8e565b34801561099b57600080fd5b506103e3600160a060020a0360043516613b2f565b3480156109bc57600080fd5b506103e3600435613b69565b3480156109d457600080fd5b506102e0613c6b565b3480156109e957600080fd5b506102e0613cde565b3480156109fe57600080fd5b506103fd600435613d51565b600080600060405160200180807f6465706f73697446697865644665650000000000000000000000000000000000815250600f0190506040516020818303038152906040526040518082805190602001908083835b60208310610a7e5780518252601f199092019160209182019101610a5f565b51815160209384036101000a600019018019909216911617905260408051929094018290039091208652850195909552929092016000205493505050505b90565b60008060008360405160200180807f6e756d4d657373616765735369676e656400000000000000000000000000000081525060110182600019166000191681526020019150506040516020818303038152906040526040518082805190602001908083835b60208310610b435780518252601f199092019160209182019101610b24565b51815160209384036101000a600019018019909216911617905260408051929094018290039091208652850195909552929092016000205495945050505050565b604080516020808201859052818301849052825180830384018152606092830193849052805192936000939192909182918401908083835b60208310610bdb5780518252601f199092019160209182019101610bbc565b6001836020036101000a03801982511681845116808217855250505050505090500191505060405180910390209050610c1381613d79565b91505b5092915050565b60006002600060405160200180807f657263363737746f6b656e000000000000000000000000000000000000000000815250600b0190506040516020818303038152906040526040518082805190602001908083835b60208310610c925780518252601f199092019160209182019101610c73565b51815160209384036101000a6000190180199092169116179052604080519290940182900390912086528501959095529290920160002054600160a060020a0316949350505050565b610ce3612210565b600160a060020a03163314610cf757600080fd5b6127108110610d50576040805160e560020a62461bcd02815260206004820152601360248201527f496e76616c6964206665652070657263656e7400000000000000000000000000604482015290519081900360640190fd5b8060008060405160200180807f6465706f73697446656550657263656e7400000000000000000000000000000081525060110190506040516020818303038152906040526040518082805190602001908083835b60208310610dc35780518252601f199092019160209182019101610da4565b51815160001960209485036101000a019081169019919091161790526040805194909201849003909320865285830196909652509284016000209490945550815184815291517f900596514ec32f39552b147b5687f2e1f073ba78d7b279016a50a1c242286b199350918290030190a150565b6000600460008360405160200180807f6669786564417373657473000000000000000000000000000000000000000000815250600b0182600019166000191681526020019150506040516020818303038152906040526040518082805190602001908083835b60208310610ebb5780518252601f199092019160209182019101610e9c565b51815160209384036101000a600019018019909216911617905260408051929094018290039091208652850195909552929092016000205460ff1695945050505050565b60008060008360405160200180807f746f74616c5370656e745065724461790000000000000000000000000000000081525060100182815260200191505060405160208183030381529060405260405180828051906020019080838360208310610b435780518252601f199092019160209182019101610b24565b60006004600060405160200180807f6973496e697469616c697a656400000000000000000000000000000000000000815250600d0190506040516020818303038152906040526040518082805190602001908083835b60208310610fef5780518252601f199092019160209182019101610fd0565b51815160209384036101000a600019018019909216911617905260408051929094018290039091208652850195909552929092016000205460ff16949350505050565b61103a612210565b600160a060020a0316331461104e57600080fd5b8060008060405160200180807f776974686472617746697865644665650000000000000000000000000000000081525060100190506040516020818303038152906040526040518082805190602001908083835b602083106110c15780518252601f1990920191602091820191016110a2565b51815160001960209485036101000a019081169019919091161790526040805194909201849003909320865285830196909652509284016000209490945550815184815291517fb9daf71f6af3d5016cbc5f8cd112abab2791e7b5de5d77777fa365129d38b83c9350918290030190a150565b61113c612210565b600160a060020a0316331461115057600080fd5b8060008060405160200180807f657865637574696f6e4461696c794c696d69740000000000000000000000000081525060130190506040516020818303038152906040526040518082805190602001908083835b602083106111c35780518252601f1990920191602091820191016111a4565b51815160001960209485036101000a019081169019919091161790526040805194909201849003909320865285830196909652509284016000209490945550815184815291517f9bebf928b90863f24cc31f726a3a7545efd409f1dcf552301b1ee3710da70d3b9350918290030190a150565b62015180420490565b600080600060405160200180807f7265717569726564426c6f636b436f6e6669726d6174696f6e73000000000000815250601a01905060405160208183030381529060405260405180828051906020019080838360208310610a7e5780518252601f199092019160209182019101610a5f565b60006112bc613ee1565b905090565b6000806000806112cf610a0a565b925061271091506112fe826112f26112e5612ff9565b889063ffffffff613ee616565b9063ffffffff613f1116565b90508083111561131057829350611314565b8093505b505050919050565b600060405160200180807f6572632d746f2d6572632d636f72650000000000000000000000000000000000815250600f0190506040516020818303038152906040526040518082805190602001908083835b6020831061138d5780518252601f19909201916020918201910161136e565b6001836020036101000a0380198251168184511680821785525050505050509050019150506040518091039020905090565b600080600060405160200180807f657865637574696f6e4461696c794c696d697400000000000000000000000000815250601301905060405160208183030381529060405260405180828051906020019080838360208310610a7e5780518252601f199092019160209182019101610a5f565b61143a612210565b600160a060020a0316331461144e57600080fd5b61271081106114a7576040805160e560020a62461bcd02815260206004820152601360248201527f496e76616c6964206665652070657263656e7400000000000000000000000000604482015290519081900360640190fd5b8060008060405160200180807f776974686472617746656550657263656e74000000000000000000000000000081525060120190506040516020818303038152906040526040518082805190602001908083835b6020831061151a5780518252601f1990920191602091820191016114fb565b51815160001960209485036101000a019081169019919091161790526040805194909201849003909320865285830196909652509284016000209490945550815184815291517ffe9de5545c4da8847eaccf83c6866790601e33ae4a57cbb97c098fb26ee0e4219350918290030190a150565b606061159882613f28565b92915050565b600080600060405160200180807f776974686472617746656550657263656e740000000000000000000000000000815250601201905060405160208183030381529060405260405180828051906020019080838360208310610a7e5780518252601f199092019160209182019101610a5f565b60008060008360405160200180807f746f74616c45786563757465645065724461790000000000000000000000000081525060130182815260200191505060405160208183030381529060405260405180828051906020019080838360208310610b435780518252601f199092019160209182019101610b24565b600080600080600061169c6123aa565b600160a060020a031663facd743b336040518263ffffffff1660e060020a0281526004018082600160a060020a0316600160a060020a03168152602001915050602060405180830381600087803b1580156116f657600080fd5b505af115801561170a573d6000803e3d6000fd5b505050506040513d602081101561172057600080fd5b5051151561172d57600080fd5b61176687878080601f01602080910402602001604051908101604052809392919081815260200183838082843750613fac945050505050565b151561177157600080fd5b6117d889898080601f0160208091040260200160405190810160405280939291908181526020018383808284375050604080516020601f8f018190048102820181019092528d815294508d93508c9250829150840183828082843750613fc0945050505050565b600160a060020a031633146117ec57600080fd5b8686604051602001808383808284378201915050925050506040516020818303038152906040526040518082805190602001908083835b602083106118425780518252601f199092019160209182019101611823565b51815160209384036101000a600019018019909216911617905260408051929094018290038220336c0100000000000000000000000002838301526034808401829052855180850390910181526054909301948590528251909b509195509293508392850191508083835b602083106118cc5780518252601f1990920191602091820191016118ad565b6001836020036101000a0380198251168184511680821785525050505050509050019150506040518091039020935061190485610abf565b925061190f83613d51565b1561191957600080fd5b60019283019283111561193e5761192f84612284565b1561193957600080fd5b611978565b6119788588888080601f01602080910402602001604051908101604052809392919081815260200183838082843750614080945050505050565b611983846001614157565b604080516020808201889052600019860182840152825180830384018152606090920192839052815191929182918401908083835b602083106119d75780518252601f1990920191602091820191016119b8565b51815160209384036101000a600019018019909216911617905260408051929094018290038220601f8f018290048202830182019094528d8252929650611a389450869350918d91508c908190840183828082843750614229945050505050565b611a4285846142ac565b60408051868152905133917fbf06885f40778f5ccfb64497d3f92ce568ddaedb7e2fb4487f72690418cf8e4c919081900360200190a2611a80612198565b9050808310611adc57611a9b85611a9685614371565b6142ac565b604080513381526020810187905280820183905290517f415557404d88a0c0b8e3b16967cafffc511213fd9c465c16832ee17ed57d72379181900360600190a15b505050505050505050565b600080611af261306c565b600160a060020a03163314611b0657600080fd5b611b0f84610e36565b15611b1957600080fd5b611b2284614396565b9092509050600160a060020a03821615801590611b3f5750600081115b1515611b4a57600080fd5b611b6a611b6582611b5961278b565b9063ffffffff61451d16565b61452f565b8215611bb55760408051600160a060020a03841681526020810183905281517f127650bcfb0ba017401abe4931453a405140a8fd36fece67bae2db174d3fdd63929181900390910190a15b611bc08460016145a1565b50505050565b600080600060405160200180807f6461696c794c696d697400000000000000000000000000000000000000000000815250600a01905060405160208183030381529060405260405180828051906020019080838360208310610a7e5780518252601f199092019160209182019101610a5f565b600080611c4461306c565b600160a060020a03163314611c5857600080fd5b600160a060020a0383161515611c6d57600080fd5b600160a060020a0384161515611cb957604051600160a060020a03841690303180156108fc02916000818181858888f19350505050158015611cb3573d6000803e3d6000fd5b50611bc0565b604080517f70a082310000000000000000000000000000000000000000000000000000000081523060048201529051859350600160a060020a038416916370a082319160248083019260209291908290030181600087803b158015611d1d57600080fd5b505af1158015611d31573d6000803e3d6000fd5b505050506040513d6020811015611d4757600080fd5b5051604080517fa9059cbb000000000000000000000000000000000000000000000000000000008152600160a060020a0386811660048301526024820184905291519293509084169163a9059cbb916044808201926020929091908290030181600087803b158015611db857600080fd5b505af1158015611dcc573d6000803e3d6000fd5b505050506040513d6020811015611de257600080fd5b50511515611bc057600080fd5b60008060008360405160200180807f6e756d41666669726d6174696f6e735369676e65640000000000000000000000815250601501826000191660001916815260200191505060405160208183030381529060405260405180828051906020019080838360208310610b435780518252601f199092019160209182019101610b24565b6000600460008360405160200180807f61666669726d6174696f6e735369676e65640000000000000000000000000000815250601201826000191660001916815260200191505060405160208183030381529060405260405180828051906020019080838360208310610ebb5780518252601f199092019160209182019101610e9c565b600080600060405160200180807f7769746864726177466978656446656500000000000000000000000000000000815250601001905060405160208183030381529060405260405180828051906020019080838360208310610a7e5780518252601f199092019160209182019101610a5f565b611f71612210565b600160a060020a03163314611f8557600080fd5b6040805160e560020a62461bcd02815260206004820152602960248201527f446570726563617465642c20736565204465706f73697457697468647261774660448201527f65654d616e616765720000000000000000000000000000000000000000000000606482015290519081900360840190fd5b50565b6000612008612210565b600160a060020a0316331461201c57600080fd5b612024610c1d565b600160a060020a03163484846040518083838082843782019150509250505060006040518083038185875af192505050151561205f57600080fd5b50600192915050565b600080600060405160200180807f66656550657263656e7400000000000000000000000000000000000000000000815250600a01905060405160208183030381529060405260405180828051906020019080838360208310610a7e5780518252601f199092019160209182019101610a5f565b6000806120fe836120f26120ed611236565b611611565b9063ffffffff61462416565b9050806121096113bf565b1015801561211e575061211a612125565b8311155b9392505050565b600080600060405160200180807f657865637574696f6e4d61785065725478000000000000000000000000000000815250601101905060405160208183030381529060405260405180828051906020019080838360208310610a7e5780518252601f199092019160209182019101610a5f565b60006121a26123aa565b600160a060020a0316638d0680436040518163ffffffff1660e060020a028152600401602060405180830381600087803b1580156121df57600080fd5b505af11580156121f3573d6000803e3d6000fd5b505050506040513d602081101561220957600080fd5b5051905090565b60006002600060405160200180807f6f776e6572000000000000000000000000000000000000000000000000000000815250600501905060405160208183030381529060405260405180828051906020019080838360208310610c925780518252601f199092019160209182019101610c73565b6000600460008360405160200180807f6d657373616765735369676e6564000000000000000000000000000000000000815250600e01826000191660001916815260200191505060405160208183030381529060405260405180828051906020019080838360208310610ebb5780518252601f199092019160209182019101610e9c565b612310612210565b600160a060020a0316331461232457600080fd5b61232c610c1d565b600160a060020a03166398a86954858585856040518563ffffffff1660e060020a02815260040180858152602001848152602001838152602001828152602001945050505050600060405180830381600087803b15801561238c57600080fd5b505af11580156123a0573d6000803e3d6000fd5b5050505050505050565b60006002600060405160200180807f76616c696461746f72436f6e7472616374000000000000000000000000000000815250601101905060405160208183030381529060405260405180828051906020019080838360208310610c925780518252601f199092019160209182019101610c73565b600080600061242b6123aa565b600160a060020a031663facd743b336040518263ffffffff1660e060020a0281526004018082600160a060020a0316600160a060020a03168152602001915050602060405180830381600087803b15801561248557600080fd5b505af1158015612499573d6000803e3d6000fd5b505050506040513d60208110156124af57600080fd5b505115156124bc57600080fd5b6124c585614633565b156126fb57604080516c01000000000000000000000000600160a060020a0389160260208083019190915260348201889052605480830188905283518084039091018152607490920192839052815191929182918401908083835b6020831061253f5780518252601f199092019160209182019101612520565b51815160209384036101000a600019018019909216911617905260408051929094018290038220336c01000000000000000000000000028383015260348084018290528551808503909101815260549093019485905282519099509195509293508392850191508083835b602083106125c95780518252601f1990920191602091820191016125aa565b6001836020036101000a0380198251168184511680821785525050505050509050019150506040518091039020915061260182611e72565b1561260b57600080fd5b61261682600161463e565b61261f83611def565b905061262a81613d51565b1561263457600080fd5b60010161264183826146c1565b60408051858152905133917f5df9cc3eb93d8a9a481857a3b70a8ca966e6b80b25cf0ee2cce180ec5afa80a1919081900360200190a261267f612198565b81106126f6576126978361269283614371565b6146c1565b6126a18686614743565b15156126ac57600080fd5b60408051600160a060020a03881681526020810187905280820186905290517f6fc115a803b8703117d9a3956c5a15401cb42401f91630f015eb6b043fa762539181900360600190a15b612706565b612706868686614980565b505050505050565b600080600060405160200180807f6465706c6f7965644174426c6f636b0000000000000000000000000000000000815250600f01905060405160208183030381529060405260405180828051906020019080838360208310610a7e5780518252601f199092019160209182019101610a5f565b6002806000909192565b600080600060405160200180807f6f75744f664c696d6974416d6f756e7400000000000000000000000000000000815250601001905060405160208183030381529060405260405180828051906020019080838360208310610a7e5780518252601f199092019160209182019101610a5f565b612806612210565b600160a060020a0316331461281a57600080fd5b612822611bc6565b811080156128365750612833613c6b565b81105b151561284157600080fd5b8060008060405160200180807f6d696e506572547800000000000000000000000000000000000000000000000081525060080190506040516020818303038152906040526040518082805190602001908083835b602083106128b45780518252601f199092019160209182019101612895565b51815160209384036101000a600019018019909216911617905260408051929094018290039091208652850195909552929092016000209390935550505050565b6000806000612902610c1d565b600160a060020a03163314612961576040805160e560020a62461bcd02815260206004820152600c60248201527f556e6b6f776e20746f6b656e0000000000000000000000000000000000000000604482015290519081900360640190fd5b61296a8661391d565b15156129c0576040805160e560020a62461bcd02815260206004820152601860248201527f5472616e73666572206c696d69742065786365656465642e0000000000000000604482015290519081900360640190fd5b6129c8611ef6565b8611612a1e576040805160e560020a62461bcd02815260206004820152601660248201527f56616c7565206973206c657373207468616e2066656500000000000000000000604482015290519081900360640190fd5b612a2786612df4565b91508115612b2257612a37610c1d565b600160a060020a031663a9059cbb612a4d612d80565b846040518363ffffffff1660e060020a0281526004018083600160a060020a0316600160a060020a0316815260200182815260200192505050602060405180830381600087803b158015612aa057600080fd5b505af1158015612ab4573d6000803e3d6000fd5b505050506040513d6020811015612aca57600080fd5b50511515612b22576040805160e560020a62461bcd02815260206004820152601660248201527f6661696c656420746f207472616e736665722066656500000000000000000000604482015290519081900360640190fd5b612b32868363ffffffff61451d16565b9050612b58612b3f611236565b612b53836120f2612b4e611236565b610eff565b614a1b565b612b628782614a95565b5060019695505050505050565b612b77612210565b600160a060020a03163314612b8b57600080fd5b60008111612b9857600080fd5b8060008060405160200180807f7265717569726564426c6f636b436f6e6669726d6174696f6e73000000000000815250601a0190506040516020818303038152906040526040518082805190602001908083835b60208310612c0b5780518252601f199092019160209182019101612bec565b51815160001960209485036101000a019081169019919091161790526040805194909201849003909320865285830196909652509284016000209490945550815184815291517f4fb76205cd57c896b21511d2114137d8e901b4ccd659e1a0f97d6306795264fb9350918290030190a150565b612c86612210565b600160a060020a03163314612c9a57600080fd5b8060008060405160200180807f6461696c794c696d697400000000000000000000000000000000000000000000815250600a0190506040516020818303038152906040526040518082805190602001908083835b60208310612d0d5780518252601f199092019160209182019101612cee565b51815160001960209485036101000a019081169019919091161790526040805194909201849003909320865285830196909652509284016000209490945550815184815291517fad4123ae17c414d9c6d2fec478b402e6b01856cc250fd01fbfd252fda0089d3c9350918290030190a150565b60006002600060405160200180807f6665655265636569766572000000000000000000000000000000000000000000815250600b01905060405160208183030381529060405260405180828051906020019080838360208310610c925780518252601f199092019160209182019101610c73565b600080600080612e02611ef6565b925061271091506112fe826112f26112e561159e565b612e20612210565b600160a060020a03163314612e3457600080fd5b60008111612e4157600080fd5b8060008060405160200180807f676173507269636500000000000000000000000000000000000000000000000081525060080190506040516020818303038152906040526040518082805190602001908083835b60208310612eb45780518252601f199092019160209182019101612e95565b51815160001960209485036101000a019081169019919091161790526040805194909201849003909320865285830196909652509284016000209490945550815184815291517f52264b89e0fceafb26e79fd49ef8a366eb6297483bf4035b027f0c99a7ad512e9350918290030190a150565b600061271061211e612f4b826112f2612f3e612068565b879063ffffffff613ee616565b849063ffffffff61451d16565b612f60612210565b600160a060020a03163314612f7457600080fd5b612f7c611bc6565b8110612f8757600080fd5b8060008060405160200180807f6d617850657254780000000000000000000000000000000000000000000000008152506008019050604051602081830303815290604052604051808280519060200190808383602083106128b45780518252601f199092019160209182019101612895565b600080600060405160200180807f6465706f73697446656550657263656e74000000000000000000000000000000815250601101905060405160208183030381529060405260405180828051906020019080838360208310610a7e5780518252601f199092019160209182019101610a5f565b600030600160a060020a031663025313a26040518163ffffffff1660e060020a028152600401602060405180830381600087803b1580156121df57600080fd5b600080600060405160200180807f6d696e5065725478000000000000000000000000000000000000000000000000815250600801905060405160208183030381529060405260405180828051906020019080838360208310610a7e5780518252601f199092019160209182019101610a5f565b6000613129610f7a565b1561313357600080fd5b600160a060020a038c161580159061314f575061314f8c614add565b151561315a57600080fd5b6000881161316757600080fd5b6000871161317457600080fd5b6000891180156131835750888a115b801561318e5750898b115b151561319957600080fd5b8484106131a557600080fd5b600160a060020a03831615156131ba57600080fd5b6127108210613213576040805160e560020a62461bcd02815260206004820152601360248201527f496e76616c6964206665652070657263656e7400000000000000000000000000604482015290519081900360640190fd5b8b6002600060405160200180807f76616c696461746f72436f6e747261637400000000000000000000000000000081525060110190506040516020818303038152906040526040518082805190602001908083835b602083106132875780518252601f199092019160209182019101613268565b51815160209384036101000a60001901801990921691161790526040805192909401829003909120865285810196909652509283016000908120805473ffffffffffffffffffffffffffffffffffffffff1916600160a060020a039790971696909617909555505080517f6465706c6f7965644174426c6f636b0000000000000000000000000000000000818401528151600f818303018152602f90910191829052805143949384939182918401908083835b602083106133595780518252601f19909201916020918201910161333a565b51815160209384036101000a6000190180199092169116179052604080519290940182900390912086528581019690965250928301600090812095909555505080517f6461696c794c696d697400000000000000000000000000000000000000000000818401528151600a818303018152602a9091019182905280518f949384939182918401908083835b602083106134035780518252601f1990920191602091820191016133e4565b51815160209384036101000a6000190180199092169116179052604080519290940182900390912086528581019690965250928301600090812095909555505080517f6d61785065725478000000000000000000000000000000000000000000000000818401528151600881830301815260289091019182905280518e949384939182918401908083835b602083106134ad5780518252601f19909201916020918201910161348e565b51815160209384036101000a6000190180199092169116179052604080519290940182900390912086528581019690965250928301600090812095909555505080517f6d696e5065725478000000000000000000000000000000000000000000000000818401528151600881830301815260289091019182905280518d949384939182918401908083835b602083106135575780518252601f199092019160209182019101613538565b51815160209384036101000a6000190180199092169116179052604080519290940182900390912086528581019690965250928301600090812095909555505080517f6761735072696365000000000000000000000000000000000000000000000000818401528151600881830301815260289091019182905280518c949384939182918401908083835b602083106136015780518252601f1990920191602091820191016135e2565b51815160209384036101000a6000190180199092169116179052604080519290940182900390912086528581019690965250928301600090812095909555505080517f7265717569726564426c6f636b436f6e6669726d6174696f6e73000000000000818401528151601a818303018152603a9091019182905280518b949384939182918401908083835b602083106136ab5780518252601f19909201916020918201910161368c565b51815160209384036101000a6000190180199092169116179052604080519290940182900390912086528581019690965250928301600090812095909555505080517f657865637574696f6e4461696c794c696d6974000000000000000000000000008184015281516013818303018152603390910191829052805189949384939182918401908083835b602083106137555780518252601f199092019160209182019101613736565b51815160209384036101000a6000190180199092169116179052604080519290940182900390912086528581019690965250928301600090812095909555505080517f657865637574696f6e4d617850657254780000000000000000000000000000008184015281516011818303018152603190910191829052805188949384939182918401908083835b602083106137ff5780518252601f1990920191602091820191016137e0565b51815160209384036101000a6000190180199092169116179052604080519290940182900390912086528581019690965250928301600090812095909555505080517f66656550657263656e7400000000000000000000000000000000000000000000818401528151600a818303018152602a90910191829052805186949384939182918401908083835b602083106138a95780518252601f19909201916020918201910161388a565b51815160209384036101000a6000190180199092169116179052604080519290940182900390912086528501959095529290920160002093909355506138f29150849050614ae5565b6138fc6001614c0d565b61390586614cce565b61390d610f7a565b9c9b505050505050505050505050565b60008061392f836120f2612b4e611236565b90508061393a611bc6565b1015801561394f575061394b613c6b565b8311155b801561211e575061395e6130ac565b9092101592915050565b613970612210565b600160a060020a0316331461398457600080fd5b806002600060405160200180807f6665655265636569766572000000000000000000000000000000000000000000815250600b0190506040516020818303038152906040526040518082805190602001908083835b602083106139f85780518252601f1990920191602091820191016139d9565b51815160209384036101000a6000190180199092169116179052604080519290940182900390912086528581019690965250928301600020805473ffffffffffffffffffffffffffffffffffffffff1916600160a060020a03968716179055505080519284168352517f776861b3962c8a36ffbbbc1949c17d4ab1bc5292f101850d6f3b375c5b80719f9281900390910190a150565b613a96612210565b600160a060020a03163314613aaa57600080fd5b613ab26113bf565b8110613abd57600080fd5b8060008060405160200180807f657865637574696f6e4d617850657254780000000000000000000000000000008152506011019050604051602081830303815290604052604051808280519060200190808383602083106128b45780518252601f199092019160209182019101612895565b613b37612210565b600160a060020a03163314613b4b57600080fd5b600160a060020a0381161515613b6057600080fd5b611ffb81614ae5565b613b71612210565b600160a060020a03163314613b8557600080fd5b8060008060405160200180807f6465706f73697446697865644665650000000000000000000000000000000000815250600f0190506040516020818303038152906040526040518082805190602001908083835b60208310613bf85780518252601f199092019160209182019101613bd9565b51815160001960209485036101000a019081169019919091161790526040805194909201849003909320865285830196909652509284016000209490945550815184815291517f6279d9473dc88fcc617c497810459ca473fc1acc213415c9aba6386adad59ba99350918290030190a150565b600080600060405160200180807f6d61785065725478000000000000000000000000000000000000000000000000815250600801905060405160208183030381529060405260405180828051906020019080838360208310610a7e5780518252601f199092019160209182019101610a5f565b600080600060405160200180807f6761735072696365000000000000000000000000000000000000000000000000815250600801905060405160208183030381529060405260405180828051906020019080838360208310610a7e5780518252601f199092019160209182019101610a5f565b7f80000000000000000000000000000000000000000000000000000000000000009081161490565b6060600360008360405160200180807f7369676e61747572657300000000000000000000000000000000000000000000815250600a0182600019166000191681526020019150506040516020818303038152906040526040518082805190602001908083835b60208310613dfe5780518252601f199092019160209182019101613ddf565b6001836020036101000a0380198251168184511680821785525050505050509050019150506040518091039020600019166000191681526020019081526020016000208054600181600116156101000203166002900480601f016020809104026020016040519081016040528092919081815260200182805460018160011615610100020316600290048015613ed55780601f10613eaa57610100808354040283529160200191613ed5565b820191906000526020600020905b815481529060010190602001808311613eb857829003601f168201915b50505050509050919050565b606890565b600080831515613ef95760009150610c16565b50828202828482811515613f0957fe5b041461211e57fe5b6000808284811515613f1f57fe5b04949350505050565b6060600360008360405160200180807f6d65737361676573000000000000000000000000000000000000000000000000815250600801826000191660001916815260200191505060405160208183030381529060405260405180828051906020019080838360208310613dfe5780518252601f199092019160209182019101613ddf565b6000613fb6613ee1565b8251149050919050565b60008060008085516041141515613fd657600080fd5b5050506020830151604084015160608501516001613ff386614d68565b60408051600080825260208083018085529490945260ff7f0100000000000000000000000000000000000000000000000000000000000000870416828401526060820188905260808201879052915160a08083019493601f198301938390039091019190865af115801561406b573d6000803e3d6000fd5b5050604051601f190151979650505050505050565b80600360008460405160200180807f6d6573736167657300000000000000000000000000000000000000000000000081525060080182600019166000191681526020019150506040516020818303038152906040526040518082805190602001908083835b602083106141045780518252601f1990920191602091820191016140e5565b51815160001960209485036101000a01908116901991909116179052604080519490920184900390932086528583019690965250929093016000208451614152959194509201919050615148565b505050565b80600460008460405160200180807f6d657373616765735369676e6564000000000000000000000000000000000000815250600e0182600019166000191681526020019150506040516020818303038152906040526040518082805190602001908083835b602083106141db5780518252601f1990920191602091820191016141bc565b51815160209384036101000a60001901801990921691161790526040805192909401829003909120865285019590955292909201600020805460ff1916941515949094179093555050505050565b80600360008460405160200180807f7369676e61747572657300000000000000000000000000000000000000000000815250600a018260001916600019168152602001915050604051602081830303815290604052604051808280519060200190808383602083106141045780518252601f1990920191602091820191016140e5565b806000808460405160200180807f6e756d4d657373616765735369676e656400000000000000000000000000000081525060110182600019166000191681526020019150506040516020818303038152906040526040518082805190602001908083835b6020831061432f5780518252601f199092019160209182019101614310565b51815160209384036101000a60001901801990921691161790526040805192909401829003909120865285019590955292909201600020939093555050505050565b7f80000000000000000000000000000000000000000000000000000000000000001790565b600080600260008460405160200180807f74784f75744f664c696d6974526563697069656e74000000000000000000000081525060150182600019166000191681526020019150506040516020818303038152906040526040518082805190602001908083835b6020831061441c5780518252601f1990920191602091820191016143fd565b51815160209384036101000a600019018019909216911617905260408051929094018290039091208652858101969096525092830160009081205484517f74784f75744f664c696d697456616c75650000000000000000000000000000008188015260318082018b9052865180830390910181526051909101958690528051600160a060020a0390921698509195869592945091925082918401908083835b602083106144da5780518252601f1990920191602091820191016144bb565b51815160209384036101000a6000190180199092169116179052604080519290940182900390912086528501959095529290920160002054949694955050505050565b60008282111561452957fe5b50900390565b8060008060405160200180807f6f75744f664c696d6974416d6f756e74000000000000000000000000000000008152506010019050604051602081830303815290604052604051808280519060200190808383602083106128b45780518252601f199092019160209182019101612895565b80600460008460405160200180807f6669786564417373657473000000000000000000000000000000000000000000815250600b018260001916600019168152602001915050604051602081830303815290604052604051808280519060200190808383602083106141db5780518252601f1990920191602091820191016141bc565b60008282018381101561211e57fe5b6000611598826120db565b80600460008460405160200180807f61666669726d6174696f6e735369676e656400000000000000000000000000008152506012018260001916600019168152602001915050604051602081830303815290604052604051808280519060200190808383602083106141db5780518252601f1990920191602091820191016141bc565b806000808460405160200180807f6e756d41666669726d6174696f6e735369676e6564000000000000000000000081525060150182600019166000191681526020019150506040516020818303038152906040526040518082805190602001908083836020831061432f5780518252601f199092019160209182019101614310565b6000806000614767614753611236565b614762866120f26120ed611236565b614f2d565b614770846112c1565b915081841161482057614781610c1d565b600160a060020a031663a9059cbb614797612d80565b866040518363ffffffff1660e060020a0281526004018083600160a060020a0316600160a060020a0316815260200182815260200192505050602060405180830381600087803b1580156147ea57600080fd5b505af11580156147fe573d6000803e3d6000fd5b505050506040513d602081101561481457600080fd5b50600193506149789050565b81156148c45761482e610c1d565b600160a060020a031663a9059cbb614844612d80565b846040518363ffffffff1660e060020a0281526004018083600160a060020a0316600160a060020a0316815260200182815260200192505050602060405180830381600087803b15801561489757600080fd5b505af11580156148ab573d6000803e3d6000fd5b505050506040513d60208110156148c157600080fd5b50505b6148d4848363ffffffff61451d16565b90508015614973576148e4610c1d565b600160a060020a031663a9059cbb86836040518363ffffffff1660e060020a0281526004018083600160a060020a0316600160a060020a0316815260200182815260200192505050602060405180830381600087803b15801561494657600080fd5b505af115801561495a573d6000803e3d6000fd5b505050506040513d602081101561497057600080fd5b50505b600192505b505092915050565b60008061498c83614396565b9092509050600160a060020a0382161580156149a6575080155b15156149b157600080fd5b6149c0611b65856120f261278b565b6149cb858585614fa7565b60408051600160a060020a03871681526020810186905280820185905290517f159c0773f543f1e17d5e78327702770947055eb4e871b529bbc78bc9fde456929181900360600190a15050505050565b806000808460405160200180807f746f74616c5370656e74506572446179000000000000000000000000000000008152506010018281526020019150506040516020818303038152906040526040518082805190602001908083836020831061432f5780518252601f199092019160209182019101614310565b60408051600160a060020a03841681526020810183905281517f127650bcfb0ba017401abe4931453a405140a8fd36fece67bae2db174d3fdd63929181900390910190a15050565b6000903b1190565b7f8be0079c531659141344cd1fd0a4f28419497f9722a3daafe3b4186f6b6457e0614b0e612210565b60408051600160a060020a03928316815291841660208301528051918290030190a1806002600060405160200180807f6f776e657200000000000000000000000000000000000000000000000000000081525060050190506040516020818303038152906040526040518082805190602001908083835b60208310614ba45780518252601f199092019160209182019101614b85565b51815160209384036101000a60001901801990921691161790526040805192909401829003909120865285019590955292909201600020805473ffffffffffffffffffffffffffffffffffffffff1916600160a060020a03959095169490941790935550505050565b806004600060405160200180807f6973496e697469616c697a656400000000000000000000000000000000000000815250600d0190506040516020818303038152906040526040518082805190602001908083835b60208310614c815780518252601f199092019160209182019101614c62565b51815160209384036101000a60001901801990921691161790526040805192909401829003909120865285019590955292909201600020805460ff19169415159490941790935550505050565b600160a060020a03811615801590614cea5750614cea81614add565b1515614cf557600080fd5b806002600060405160200180807f657263363737746f6b656e000000000000000000000000000000000000000000815250600b01905060405160208183030381529060405260405180828051906020019080838360208310614ba45780518252601f199092019160209182019101614b85565b604080518082018252601a81527f19457468657265756d205369676e6564204d6573736167653a0a000000000000602080830191825283518085018552600381527f313034000000000000000000000000000000000000000000000000000000000081830152935183516000959385938593899391019182918083835b60208310614e045780518252601f199092019160209182019101614de5565b51815160209384036101000a600019018019909216911617905286519190930192860191508083835b60208310614e4c5780518252601f199092019160209182019101614e2d565b51815160209384036101000a600019018019909216911617905285519190930192850191508083835b60208310614e945780518252601f199092019160209182019101614e75565b6001836020036101000a03801982511681845116808217855250505050505090500193505050506040516020818303038152906040526040518082805190602001908083835b60208310614ef95780518252601f199092019160209182019101614eda565b5181516020939093036101000a60001901801990911692169190911790526040519201829003909120979650505050505050565b806000808460405160200180807f746f74616c4578656375746564506572446179000000000000000000000000008152506013018281526020019150506040516020818303038152906040526040518082805190602001908083836020831061432f5780518252601f199092019160209182019101614310565b82600260008360405160200180807f74784f75744f664c696d6974526563697069656e74000000000000000000000081525060150182600019166000191681526020019150506040516020818303038152906040526040518082805190602001908083835b6020831061502b5780518252601f19909201916020918201910161500c565b51815160209384036101000a60001901801990921691161790526040805192909401829003909120865285810196909652509283016000908120805473ffffffffffffffffffffffffffffffffffffffff1916600160a060020a039790971696909617909555505080517f74784f75744f664c696d697456616c756500000000000000000000000000000081840152603180820186905282518083039091018152605190910191829052805186949384939182918401908083835b602083106151055780518252601f1990920191602091820191016150e6565b51815160209384036101000a6000190180199092169116179052604080519290940182900390912086528501959095529290920160002093909355505050505050565b828054600181600116156101000203166002900490600052602060002090601f016020900481019282601f1061518957805160ff19168380011785556151b6565b828001600101855582156151b6579182015b828111156151b657825182559160200191906001019061519b565b506151c29291506151c6565b5090565b610abc91905b808211156151c257600081556001016151cc5600a165627a7a723058200695c8438a0d18bb9b26d9fea57e503f3c89f31a556ecc20f85a57b25b41921d0029",
  "source": "\n\n\npragma solidity 0.4.24;\n\nimport \"../erc20_to_erc20/HomeBridgeErcToErcWithFee.sol\";\nimport \"../DepositWithdrawFeeManager.sol\";\n\ncontract HomeBridgeErc677ToErc677WithFee is HomeBridgeErcToErcWithFee {\n    function getBridgeMode() public pure returns(bytes4 _data) {\n        return bytes4(keccak256(abi.encodePacked(\"erc-to-erc-core\")));\n    }\n\n    function onTokenTransfer(address _from, uint256 _value, bytes _data) external returns(bool) {\n        require(msg.sender == address(erc677token()), \"Unkown token\");\n        require(withinLimit(_value), \"Transfer limit exceeded.\");\n        require(_value > withdrawFixedFee(), \"Value is less than fee\");\n        uint256 fee = withdrawFee(_value);\n        if (fee != 0) {\n            require(erc677token().transfer(feeReceiver(), fee), \"failed to transfer fee\");\n        }\n        uint256 value = _value.sub(fee);\n\n        setTotalSpentPerDay(getCurrentDay(), totalSpentPerDay(getCurrentDay()).add(value));\n        fireEventOnTokenTransfer(_from, value);\n        return true;\n    }\n\n    function onExecuteAffirmation(address _recipient, uint256 _value) internal returns(bool) {\n        setTotalExecutedPerDay(getCurrentDay(), totalExecutedPerDay(getCurrentDay()).add(_value));\n\n        uint256 fee = depositFee(_value);\n        if (_value <= fee) {\n            erc677token().transfer(feeReceiver(), _value);\n            return true;\n        }\n\n        if (fee != 0) {\n            erc677token().transfer(feeReceiver(), fee);\n        }\n\n        uint256 value = _value.sub(fee);\n        if (value != 0) {\n            erc677token().transfer(_recipient, value);\n        }\n\n        return true;\n    }\n\n    function callToken(bytes data) onlyOwner payable external returns (bool) {\n        require(erc677token().call.value(msg.value)(data));\n        return true;\n    }\n\n    function setFeePercent(uint256 _feePercent) public onlyOwner {\n        require(false, \"Deprecated, see DepositWithdrawFeeManager\");\n    }\n}\n",
  "sourcePath": "/home/wayne/git/tt/thunder_bridge/contracts/contracts/upgradeable_contracts/erc20_to_erc20/HomeBridgeErc677ToErc677.sol",
  "compiler": {
    "name": "solc",
    "version": "0.4.24+commit.e67f0147.Emscripten.clang"
  },
  "schemaVersion": "3.4.2",
  "updatedAt": "2021-09-22T07:08:39.692Z",
  "devdoc": {
    "methods": {
      "feePercent()": {
        "details": "Returns current fee percent. It has 2 decimal places. e.g. value 1337 has to be interpreted as 13.37%",
        "return": "fee percent."
      },
      "owner()": {
        "details": "Tells the address of the owner",
        "return": "the address of the owner"
      },
      "transferOwnership(address)": {
        "details": "Allows the current owner to transfer control of the contract to a newOwner.",
        "params": {
          "newOwner": "the address to transfer ownership to."
        }
      }
    }
  },
  "userdoc": {
    "methods": {}
  }
}